{
  "_format": "hh-sol-artifact-1",
  "contractName": "LandRegistry",
  "sourceName": "contracts/LandRegistry.sol",
  "abi": [
    {
      "inputs": [],
      "stateMutability": "nonpayable",
      "type": "constructor"
    },
    {
      "inputs": [
        {
          "internalType": "address",
          "name": "sender",
          "type": "address"
        },
        {
          "internalType": "uint256",
          "name": "tokenId",
          "type": "uint256"
        },
        {
          "internalType": "address",
          "name": "owner",
          "type": "address"
        }
      ],
      "name": "ERC721IncorrectOwner",
      "type": "error"
    },
    {
      "inputs": [
        {
          "internalType": "address",
          "name": "operator",
          "type": "address"
        },
        {
          "internalType": "uint256",
          "name": "tokenId",
          "type": "uint256"
        }
      ],
      "name": "ERC721InsufficientApproval",
      "type": "error"
    },
    {
      "inputs": [
        {
          "internalType": "address",
          "name": "approver",
          "type": "address"
        }
      ],
      "name": "ERC721InvalidApprover",
      "type": "error"
    },
    {
      "inputs": [
        {
          "internalType": "address",
          "name": "operator",
          "type": "address"
        }
      ],
      "name": "ERC721InvalidOperator",
      "type": "error"
    },
    {
      "inputs": [
        {
          "internalType": "address",
          "name": "owner",
          "type": "address"
        }
      ],
      "name": "ERC721InvalidOwner",
      "type": "error"
    },
    {
      "inputs": [
        {
          "internalType": "address",
          "name": "receiver",
          "type": "address"
        }
      ],
      "name": "ERC721InvalidReceiver",
      "type": "error"
    },
    {
      "inputs": [
        {
          "internalType": "address",
          "name": "sender",
          "type": "address"
        }
      ],
      "name": "ERC721InvalidSender",
      "type": "error"
    },
    {
      "inputs": [
        {
          "internalType": "uint256",
          "name": "tokenId",
          "type": "uint256"
        }
      ],
      "name": "ERC721NonexistentToken",
      "type": "error"
    },
    {
      "inputs": [
        {
          "internalType": "address",
          "name": "owner",
          "type": "address"
        }
      ],
      "name": "OwnableInvalidOwner",
      "type": "error"
    },
    {
      "inputs": [
        {
          "internalType": "address",
          "name": "account",
          "type": "address"
        }
      ],
      "name": "OwnableUnauthorizedAccount",
      "type": "error"
    },
    {
      "anonymous": false,
      "inputs": [
        {
          "indexed": true,
          "internalType": "address",
          "name": "owner",
          "type": "address"
        },
        {
          "indexed": true,
          "internalType": "address",
          "name": "approved",
          "type": "address"
        },
        {
          "indexed": true,
          "internalType": "uint256",
          "name": "tokenId",
          "type": "uint256"
        }
      ],
      "name": "Approval",
      "type": "event"
    },
    {
      "anonymous": false,
      "inputs": [
        {
          "indexed": true,
          "internalType": "address",
          "name": "owner",
          "type": "address"
        },
        {
          "indexed": true,
          "internalType": "address",
          "name": "operator",
          "type": "address"
        },
        {
          "indexed": false,
          "internalType": "bool",
          "name": "approved",
          "type": "bool"
        }
      ],
      "name": "ApprovalForAll",
      "type": "event"
    },
    {
      "anonymous": false,
      "inputs": [
        {
          "indexed": false,
          "internalType": "uint256",
          "name": "_fromTokenId",
          "type": "uint256"
        },
        {
          "indexed": false,
          "internalType": "uint256",
          "name": "_toTokenId",
          "type": "uint256"
        }
      ],
      "name": "BatchMetadataUpdate",
      "type": "event"
    },
    {
      "anonymous": false,
      "inputs": [
        {
          "indexed": true,
          "internalType": "uint256",
          "name": "landId",
          "type": "uint256"
        },
        {
          "indexed": false,
          "internalType": "uint256",
          "name": "priceWei",
          "type": "uint256"
        }
      ],
      "name": "LandListed",
      "type": "event"
    },
    {
      "anonymous": false,
      "inputs": [
        {
          "indexed": true,
          "internalType": "uint256",
          "name": "landId",
          "type": "uint256"
        },
        {
          "indexed": true,
          "internalType": "address",
          "name": "newOwner",
          "type": "address"
        }
      ],
      "name": "LandOwnershipTransferred",
      "type": "event"
    },
    {
      "anonymous": false,
      "inputs": [
        {
          "indexed": true,
          "internalType": "uint256",
          "name": "landId",
          "type": "uint256"
        },
        {
          "indexed": true,
          "internalType": "address",
          "name": "owner",
          "type": "address"
        },
        {
          "indexed": false,
          "internalType": "string",
          "name": "metadataCID",
          "type": "string"
        }
      ],
      "name": "LandRegistered",
      "type": "event"
    },
    {
      "anonymous": false,
      "inputs": [
        {
          "indexed": true,
          "internalType": "uint256",
          "name": "landId",
          "type": "uint256"
        },
        {
          "indexed": false,
          "internalType": "enum LandRegistry.LandStatus",
          "name": "newStatus",
          "type": "uint8"
        }
      ],
      "name": "LandStatusUpdated",
      "type": "event"
    },
    {
      "anonymous": false,
      "inputs": [
        {
          "indexed": false,
          "internalType": "uint256",
          "name": "_tokenId",
          "type": "uint256"
        }
      ],
      "name": "MetadataUpdate",
      "type": "event"
    },
    {
      "anonymous": false,
      "inputs": [
        {
          "indexed": true,
          "internalType": "address",
          "name": "previousOwner",
          "type": "address"
        },
        {
          "indexed": true,
          "internalType": "address",
          "name": "newOwner",
          "type": "address"
        }
      ],
      "name": "OwnershipTransferred",
      "type": "event"
    },
    {
      "anonymous": false,
      "inputs": [
        {
          "indexed": true,
          "internalType": "uint256",
          "name": "landId",
          "type": "uint256"
        },
        {
          "indexed": true,
          "internalType": "address",
          "name": "buyer",
          "type": "address"
        }
      ],
      "name": "PurchaseRequested",
      "type": "event"
    },
    {
      "anonymous": false,
      "inputs": [
        {
          "indexed": true,
          "internalType": "address",
          "name": "from",
          "type": "address"
        },
        {
          "indexed": true,
          "internalType": "address",
          "name": "to",
          "type": "address"
        },
        {
          "indexed": true,
          "internalType": "uint256",
          "name": "tokenId",
          "type": "uint256"
        }
      ],
      "name": "Transfer",
      "type": "event"
    },
    {
      "anonymous": false,
      "inputs": [
        {
          "indexed": true,
          "internalType": "address",
          "name": "user",
          "type": "address"
        },
        {
          "indexed": false,
          "internalType": "string",
          "name": "metadataCID",
          "type": "string"
        }
      ],
      "name": "UserRegistered",
      "type": "event"
    },
    {
      "inputs": [
        {
          "internalType": "address",
          "name": "to",
          "type": "address"
        },
        {
          "internalType": "uint256",
          "name": "tokenId",
          "type": "uint256"
        }
      ],
      "name": "approve",
      "outputs": [],
      "stateMutability": "nonpayable",
      "type": "function"
    },
    {
      "inputs": [
        {
          "internalType": "address",
          "name": "owner",
          "type": "address"
        }
      ],
      "name": "balanceOf",
      "outputs": [
        {
          "internalType": "uint256",
          "name": "",
          "type": "uint256"
        }
      ],
      "stateMutability": "view",
      "type": "function"
    },
    {
      "inputs": [],
      "name": "getAllLandIds",
      "outputs": [
        {
          "internalType": "uint256[]",
          "name": "",
          "type": "uint256[]"
        }
      ],
      "stateMutability": "view",
      "type": "function"
    },
    {
      "inputs": [
        {
          "internalType": "uint256",
          "name": "tokenId",
          "type": "uint256"
        }
      ],
      "name": "getApproved",
      "outputs": [
        {
          "internalType": "address",
          "name": "",
          "type": "address"
        }
      ],
      "stateMutability": "view",
      "type": "function"
    },
    {
      "inputs": [
        {
          "internalType": "uint256",
          "name": "landId",
          "type": "uint256"
        }
      ],
      "name": "getLand",
      "outputs": [
        {
          "components": [
            {
              "internalType": "uint256",
              "name": "landId",
              "type": "uint256"
            },
            {
              "internalType": "enum LandRegistry.LandStatus",
              "name": "status",
              "type": "uint8"
            },
            {
              "internalType": "string",
              "name": "metadataCID",
              "type": "string"
            }
          ],
          "internalType": "struct LandRegistry.Land",
          "name": "land",
          "type": "tuple"
        },
        {
          "internalType": "address",
          "name": "owner",
          "type": "address"
        },
        {
          "internalType": "string",
          "name": "publicCID",
          "type": "string"
        }
      ],
      "stateMutability": "view",
      "type": "function"
    },
    {
      "inputs": [
        {
          "internalType": "address",
          "name": "owner",
          "type": "address"
        }
      ],
      "name": "getOwnedLands",
      "outputs": [
        {
          "internalType": "uint256[]",
          "name": "",
          "type": "uint256[]"
        }
      ],
      "stateMutability": "view",
      "type": "function"
    },
    {
      "inputs": [
        {
          "internalType": "address",
          "name": "owner",
          "type": "address"
        },
        {
          "internalType": "address",
          "name": "operator",
          "type": "address"
        }
      ],
      "name": "isApprovedForAll",
      "outputs": [
        {
          "internalType": "bool",
          "name": "",
          "type": "bool"
        }
      ],
      "stateMutability": "view",
      "type": "function"
    },
    {
      "inputs": [
        {
          "internalType": "uint256",
          "name": "",
          "type": "uint256"
        }
      ],
      "name": "landPrices",
      "outputs": [
        {
          "internalType": "uint256",
          "name": "",
          "type": "uint256"
        }
      ],
      "stateMutability": "view",
      "type": "function"
    },
    {
      "inputs": [
        {
          "internalType": "uint256",
          "name": "",
          "type": "uint256"
        }
      ],
      "name": "landToPublicCID",
      "outputs": [
        {
          "internalType": "string",
          "name": "",
          "type": "string"
        }
      ],
      "stateMutability": "view",
      "type": "function"
    },
    {
      "inputs": [
        {
          "internalType": "uint256",
          "name": "",
          "type": "uint256"
        }
      ],
      "name": "lands",
      "outputs": [
        {
          "internalType": "uint256",
          "name": "landId",
          "type": "uint256"
        },
        {
          "internalType": "enum LandRegistry.LandStatus",
          "name": "status",
          "type": "uint8"
        },
        {
          "internalType": "string",
          "name": "metadataCID",
          "type": "string"
        }
      ],
      "stateMutability": "view",
      "type": "function"
    },
    {
      "inputs": [],
      "name": "name",
      "outputs": [
        {
          "internalType": "string",
          "name": "",
          "type": "string"
        }
      ],
      "stateMutability": "view",
      "type": "function"
    },
    {
      "inputs": [],
      "name": "owner",
      "outputs": [
        {
          "internalType": "address",
          "name": "",
          "type": "address"
        }
      ],
      "stateMutability": "view",
      "type": "function"
    },
    {
      "inputs": [
        {
          "internalType": "uint256",
          "name": "tokenId",
          "type": "uint256"
        }
      ],
      "name": "ownerOf",
      "outputs": [
        {
          "internalType": "address",
          "name": "",
          "type": "address"
        }
      ],
      "stateMutability": "view",
      "type": "function"
    },
    {
      "inputs": [
        {
          "internalType": "address",
          "name": "",
          "type": "address"
        },
        {
          "internalType": "uint256",
          "name": "",
          "type": "uint256"
        }
      ],
      "name": "ownerToLandIds",
      "outputs": [
        {
          "internalType": "uint256",
          "name": "",
          "type": "uint256"
        }
      ],
      "stateMutability": "view",
      "type": "function"
    },
    {
      "inputs": [
        {
          "internalType": "uint256",
          "name": "",
          "type": "uint256"
        }
      ],
      "name": "pendingBuyer",
      "outputs": [
        {
          "internalType": "address",
          "name": "",
          "type": "address"
        }
      ],
      "stateMutability": "view",
      "type": "function"
    },
    {
      "inputs": [
        {
          "internalType": "address",
          "name": "to",
          "type": "address"
        },
        {
          "internalType": "string",
          "name": "metadataCID",
          "type": "string"
        },
        {
          "internalType": "string",
          "name": "publicCID",
          "type": "string"
        },
        {
          "internalType": "uint256",
          "name": "priceWei",
          "type": "uint256"
        }
      ],
      "name": "registerLand",
      "outputs": [],
      "stateMutability": "nonpayable",
      "type": "function"
    },
    {
      "inputs": [
        {
          "internalType": "string",
          "name": "cid",
          "type": "string"
        }
      ],
      "name": "registerUserWithCID",
      "outputs": [],
      "stateMutability": "nonpayable",
      "type": "function"
    },
    {
      "inputs": [],
      "name": "renounceOwnership",
      "outputs": [],
      "stateMutability": "nonpayable",
      "type": "function"
    },
    {
      "inputs": [
        {
          "internalType": "uint256",
          "name": "landId",
          "type": "uint256"
        }
      ],
      "name": "requestToBuy",
      "outputs": [],
      "stateMutability": "payable",
      "type": "function"
    },
    {
      "inputs": [
        {
          "internalType": "address",
          "name": "",
          "type": "address"
        }
      ],
      "name": "roles",
      "outputs": [
        {
          "internalType": "enum LandRegistry.Role",
          "name": "",
          "type": "uint8"
        }
      ],
      "stateMutability": "view",
      "type": "function"
    },
    {
      "inputs": [
        {
          "internalType": "address",
          "name": "from",
          "type": "address"
        },
        {
          "internalType": "address",
          "name": "to",
          "type": "address"
        },
        {
          "internalType": "uint256",
          "name": "tokenId",
          "type": "uint256"
        }
      ],
      "name": "safeTransferFrom",
      "outputs": [],
      "stateMutability": "nonpayable",
      "type": "function"
    },
    {
      "inputs": [
        {
          "internalType": "address",
          "name": "from",
          "type": "address"
        },
        {
          "internalType": "address",
          "name": "to",
          "type": "address"
        },
        {
          "internalType": "uint256",
          "name": "tokenId",
          "type": "uint256"
        },
        {
          "internalType": "bytes",
          "name": "data",
          "type": "bytes"
        }
      ],
      "name": "safeTransferFrom",
      "outputs": [],
      "stateMutability": "nonpayable",
      "type": "function"
    },
    {
      "inputs": [],
      "name": "selfRegisterUser",
      "outputs": [],
      "stateMutability": "nonpayable",
      "type": "function"
    },
    {
      "inputs": [
        {
          "internalType": "address",
          "name": "operator",
          "type": "address"
        },
        {
          "internalType": "bool",
          "name": "approved",
          "type": "bool"
        }
      ],
      "name": "setApprovalForAll",
      "outputs": [],
      "stateMutability": "nonpayable",
      "type": "function"
    },
    {
      "inputs": [
        {
          "internalType": "bytes4",
          "name": "interfaceId",
          "type": "bytes4"
        }
      ],
      "name": "supportsInterface",
      "outputs": [
        {
          "internalType": "bool",
          "name": "",
          "type": "bool"
        }
      ],
      "stateMutability": "view",
      "type": "function"
    },
    {
      "inputs": [],
      "name": "symbol",
      "outputs": [
        {
          "internalType": "string",
          "name": "",
          "type": "string"
        }
      ],
      "stateMutability": "view",
      "type": "function"
    },
    {
      "inputs": [
        {
          "internalType": "uint256",
          "name": "tokenId",
          "type": "uint256"
        }
      ],
      "name": "tokenURI",
      "outputs": [
        {
          "internalType": "string",
          "name": "",
          "type": "string"
        }
      ],
      "stateMutability": "view",
      "type": "function"
    },
    {
      "inputs": [
        {
          "internalType": "address",
          "name": "from",
          "type": "address"
        },
        {
          "internalType": "address",
          "name": "to",
          "type": "address"
        },
        {
          "internalType": "uint256",
          "name": "tokenId",
          "type": "uint256"
        }
      ],
      "name": "transferFrom",
      "outputs": [],
      "stateMutability": "nonpayable",
      "type": "function"
    },
    {
      "inputs": [
        {
          "internalType": "uint256",
          "name": "landId",
          "type": "uint256"
        },
        {
          "internalType": "address",
          "name": "newOwner",
          "type": "address"
        }
      ],
      "name": "transferLandOwnership",
      "outputs": [],
      "stateMutability": "nonpayable",
      "type": "function"
    },
    {
      "inputs": [
        {
          "internalType": "address",
          "name": "newOwner",
          "type": "address"
        }
      ],
      "name": "transferOwnership",
      "outputs": [],
      "stateMutability": "nonpayable",
      "type": "function"
    },
    {
      "inputs": [
        {
          "internalType": "uint256",
          "name": "landId",
          "type": "uint256"
        },
        {
          "internalType": "enum LandRegistry.LandStatus",
          "name": "newStatus",
          "type": "uint8"
        },
        {
          "internalType": "uint256",
          "name": "newPriceWei",
          "type": "uint256"
        }
      ],
      "name": "updateLandDetails",
      "outputs": [],
      "stateMutability": "nonpayable",
      "type": "function"
    },
    {
      "inputs": [
        {
          "internalType": "uint256",
          "name": "landId",
          "type": "uint256"
        },
        {
          "internalType": "uint256",
          "name": "newPriceWei",
          "type": "uint256"
        }
      ],
      "name": "updateLandPrice",
      "outputs": [],
      "stateMutability": "nonpayable",
      "type": "function"
    },
    {
      "inputs": [
        {
          "internalType": "uint256",
          "name": "landId",
          "type": "uint256"
        },
        {
          "internalType": "enum LandRegistry.LandStatus",
          "name": "newStatus",
          "type": "uint8"
        }
      ],
      "name": "updateLandStatus",
      "outputs": [],
      "stateMutability": "nonpayable",
      "type": "function"
    },
    {
      "inputs": [
        {
          "internalType": "address",
          "name": "",
          "type": "address"
        }
      ],
      "name": "userMetadataCID",
      "outputs": [
        {
          "internalType": "string",
          "name": "",
          "type": "string"
        }
      ],
      "stateMutability": "view",
      "type": "function"
    }
  ],
  "bytecode": "0x6080604052600160085534801561001557600080fd5b50336040518060400160405280600781526020017f476f764c616e64000000000000000000000000000000000000000000000000008152506040518060400160405280600381526020017f4d4c4e000000000000000000000000000000000000000000000000000000000081525081600090816100929190610442565b5080600190816100a29190610442565b505050600073ffffffffffffffffffffffffffffffffffffffff168173ffffffffffffffffffffffffffffffffffffffff16036101175760006040517f1e4fbdf700000000000000000000000000000000000000000000000000000000815260040161010e9190610555565b60405180910390fd5b6101268161012c60201b60201c565b50610570565b6000600760009054906101000a900473ffffffffffffffffffffffffffffffffffffffff16905081600760006101000a81548173ffffffffffffffffffffffffffffffffffffffff021916908373ffffffffffffffffffffffffffffffffffffffff1602179055508173ffffffffffffffffffffffffffffffffffffffff168173ffffffffffffffffffffffffffffffffffffffff167f8be0079c531659141344cd1fd0a4f28419497f9722a3daafe3b4186f6b6457e060405160405180910390a35050565b600081519050919050565b7f4e487b7100000000000000000000000000000000000000000000000000000000600052604160045260246000fd5b7f4e487b7100000000000000000000000000000000000000000000000000000000600052602260045260246000fd5b6000600282049050600182168061027357607f821691505b6020821081036102865761028561022c565b5b50919050565b60008190508160005260206000209050919050565b60006020601f8301049050919050565b600082821b905092915050565b6000600883026102ee7fffffffffffffffffffffffffffffffffffffffffffffffffffffffffffffffff826102b1565b6102f886836102b1565b95508019841693508086168417925050509392505050565b6000819050919050565b6000819050919050565b600061033f61033a61033584610310565b61031a565b610310565b9050919050565b6000819050919050565b61035983610324565b61036d61036582610346565b8484546102be565b825550505050565b600090565b610382610375565b61038d818484610350565b505050565b5b818110156103b1576103a660008261037a565b600181019050610393565b5050565b601f8211156103f6576103c78161028c565b6103d0846102a1565b810160208510156103df578190505b6103f36103eb856102a1565b830182610392565b50505b505050565b600082821c905092915050565b6000610419600019846008026103fb565b1980831691505092915050565b60006104328383610408565b9150826002028217905092915050565b61044b826101f2565b67ffffffffffffffff811115610464576104636101fd565b5b61046e825461025b565b6104798282856103b5565b600060209050601f8311600181146104ac576000841561049a578287015190505b6104a48582610426565b86555061050c565b601f1984166104ba8661028c565b60005b828110156104e2578489015182556001820191506020850194506020810190506104bd565b868310156104ff57848901516104fb601f891682610408565b8355505b6001600288020188555050505b505050505050565b600073ffffffffffffffffffffffffffffffffffffffff82169050919050565b600061053f82610514565b9050919050565b61054f81610534565b82525050565b600060208201905061056a6000830184610546565b92915050565b614e4c8061057f6000396000f3fe6080604052600436106101f95760003560e01c806370a082311161010d578063b88d4fde116100a0578063d7dee1921161006f578063d7dee19214610768578063e261f1e514610793578063e985e9c5146107d2578063f02dd53f1461080f578063f2fde38b1461084e576101f9565b8063b88d4fde146106b0578063bee4918c146106d9578063c64ab4cf14610702578063c87b56dd1461072b576101f9565b80638da5cb5b116100dc5780638da5cb5b146105f457806395d89b411461061f578063993746421461064a578063a22cb46514610687576101f9565b806370a082311461054c578063715018a614610589578063772afef4146105a05780637bb2d6db146105b7576101f9565b80634bbdda76116101905780635b48d9ae1161015f5780635b48d9ae1461043c5780635c7b0308146104795780636352211e146104955780636480a5d2146104d257806366f487ed1461050f576101f9565b80634bbdda76146103705780634c33fbb7146103ad578063519ea705146103d657806358200c7314610413576101f9565b8063095ea7b3116101cc578063095ea7b3146102cc578063174a8fe7146102f557806323b872dd1461031e57806342842e0e14610347576101f9565b806301ffc9a7146101fe5780630551035e1461023b57806306fdde0314610264578063081812fc1461028f575b600080fd5b34801561020a57600080fd5b5061022560048036038101906102209190613756565b610877565b604051610232919061379e565b60405180910390f35b34801561024757600080fd5b50610262600480360381019061025d9190613993565b6108d8565b005b34801561027057600080fd5b50610279610b93565b6040516102869190613ab1565b60405180910390f35b34801561029b57600080fd5b506102b660048036038101906102b19190613ad3565b610c25565b6040516102c39190613b0f565b60405180910390f35b3480156102d857600080fd5b506102f360048036038101906102ee9190613b2a565b610c41565b005b34801561030157600080fd5b5061031c60048036038101906103179190613b8f565b610c57565b005b34801561032a57600080fd5b5061034560048036038101906103409190613bcf565b610e42565b005b34801561035357600080fd5b5061036e60048036038101906103699190613bcf565b610f44565b005b34801561037c57600080fd5b5061039760048036038101906103929190613ad3565b610f64565b6040516103a49190613ab1565b60405180910390f35b3480156103b957600080fd5b506103d460048036038101906103cf9190613c22565b611004565b005b3480156103e257600080fd5b506103fd60048036038101906103f89190613c62565b6111c9565b60405161040a9190613d4d565b60405180910390f35b34801561041f57600080fd5b5061043a60048036038101906104359190613d6f565b611260565b005b34801561044857600080fd5b50610463600480360381019061045e9190613c62565b61149c565b6040516104709190613ab1565b60405180910390f35b610493600480360381019061048e9190613ad3565b61153c565b005b3480156104a157600080fd5b506104bc60048036038101906104b79190613ad3565b6117df565b6040516104c99190613b0f565b60405180910390f35b3480156104de57600080fd5b506104f960048036038101906104f49190613ad3565b6117f1565b6040516105069190613b0f565b60405180910390f35b34801561051b57600080fd5b5061053660048036038101906105319190613b2a565b611824565b6040516105439190613dd1565b60405180910390f35b34801561055857600080fd5b50610573600480360381019061056e9190613c62565b611855565b6040516105809190613dd1565b60405180910390f35b34801561059557600080fd5b5061059e61190f565b005b3480156105ac57600080fd5b506105b5611923565b005b3480156105c357600080fd5b506105de60048036038101906105d99190613ad3565b611a8c565b6040516105eb9190613dd1565b60405180910390f35b34801561060057600080fd5b50610609611aa4565b6040516106169190613b0f565b60405180910390f35b34801561062b57600080fd5b50610634611ace565b6040516106419190613ab1565b60405180910390f35b34801561065657600080fd5b50610671600480360381019061066c9190613c62565b611b60565b60405161067e9190613e63565b60405180910390f35b34801561069357600080fd5b506106ae60048036038101906106a99190613eaa565b611b80565b005b3480156106bc57600080fd5b506106d760048036038101906106d29190613f8b565b611b96565b005b3480156106e557600080fd5b5061070060048036038101906106fb919061400e565b611bbb565b005b34801561070e57600080fd5b5061072960048036038101906107249190614057565b611d74565b005b34801561073757600080fd5b50610752600480360381019061074d9190613ad3565b61214b565b60405161075f9190613ab1565b60405180910390f35b34801561077457600080fd5b5061077d6121d1565b60405161078a9190613d4d565b60405180910390f35b34801561079f57600080fd5b506107ba60048036038101906107b59190613ad3565b612280565b6040516107c9939291906140df565b60405180910390f35b3480156107de57600080fd5b506107f960048036038101906107f4919061411d565b61233f565b604051610806919061379e565b60405180910390f35b34801561081b57600080fd5b5061083660048036038101906108319190613ad3565b6123d3565b60405161084593929190614206565b60405180910390f35b34801561085a57600080fd5b5061087560048036038101906108709190613c62565b61253e565b005b6000634906490660e01b7bffffffffffffffffffffffffffffffffffffffffffffffffffffffff1916827bffffffffffffffffffffffffffffffffffffffffffffffffffffffff191614806108d157506108d0826125c4565b5b9050919050565b600160028111156108ec576108eb613dec565b5b600a60003373ffffffffffffffffffffffffffffffffffffffff1673ffffffffffffffffffffffffffffffffffffffff16815260200190815260200160002060009054906101000a900460ff16600281111561094b5761094a613dec565b5b1461098b576040517f08c379a000000000000000000000000000000000000000000000000000000000815260040161098290614297565b60405180910390fd5b6000600860008154809291906109a0906142e6565b9190505590506109b085826126a6565b6040518060600160405280828152602001600160038111156109d5576109d4613dec565b5b815260200185815250600b60008381526020019081526020016000206000820151816000015560208201518160010160006101000a81548160ff02191690836003811115610a2657610a25613dec565b5b02179055506040820151816002019081610a40919061453a565b50905050600c60008673ffffffffffffffffffffffffffffffffffffffff1673ffffffffffffffffffffffffffffffffffffffff168152602001908152602001600020819080600181540180825580915050600190039060005260206000200160009091909190915055610ab481846126c4565b8473ffffffffffffffffffffffffffffffffffffffff16817f9c4ad74928fec1ee86181680df0e76bf575b79ea2a0347f7ed270884bdd26ad786604051610afb9190613ab1565b60405180910390a381600e600083815260200190815260200160002081905550807f6d63dff809eaa3125b19b928b3955c261658ff6781148e3d3e6a939b7bee2ba96001604051610b4c919061460c565b60405180910390a2807f2f9b23898410304c2b8c29547330c8ef08ad5f7c80b5204df939744931e2752083604051610b849190613dd1565b60405180910390a25050505050565b606060008054610ba29061435d565b80601f0160208091040260200160405190810160405280929190818152602001828054610bce9061435d565b8015610c1b5780601f10610bf057610100808354040283529160200191610c1b565b820191906000526020600020905b815481529060010190602001808311610bfe57829003601f168201915b5050505050905090565b6000610c30826126e9565b50610c3a82612771565b9050919050565b610c538282610c4e6127ae565b6127b6565b5050565b60016002811115610c6b57610c6a613dec565b5b600a60003373ffffffffffffffffffffffffffffffffffffffff1673ffffffffffffffffffffffffffffffffffffffff16815260200190815260200160002060009054906101000a900460ff166002811115610cca57610cc9613dec565b5b14610d0a576040517f08c379a0000000000000000000000000000000000000000000000000000000008152600401610d0190614297565b60405180910390fd5b610d13826127c8565b610d52576040517f08c379a0000000000000000000000000000000000000000000000000000000008152600401610d4990614673565b60405180910390fd5b3373ffffffffffffffffffffffffffffffffffffffff16610d72836117df565b73ffffffffffffffffffffffffffffffffffffffff1614610dc8576040517f08c379a0000000000000000000000000000000000000000000000000000000008152600401610dbf906146df565b60405180910390fd5b80600b600084815260200190815260200160002060010160006101000a81548160ff02191690836003811115610e0157610e00613dec565b5b0217905550817f6d63dff809eaa3125b19b928b3955c261658ff6781148e3d3e6a939b7bee2ba982604051610e36919061460c565b60405180910390a25050565b600073ffffffffffffffffffffffffffffffffffffffff168273ffffffffffffffffffffffffffffffffffffffff1603610eb45760006040517f64a0ae92000000000000000000000000000000000000000000000000000000008152600401610eab9190613b0f565b60405180910390fd5b6000610ec88383610ec36127ae565b612809565b90508373ffffffffffffffffffffffffffffffffffffffff168173ffffffffffffffffffffffffffffffffffffffff1614610f3e578382826040517f64283d7b000000000000000000000000000000000000000000000000000000008152600401610f35939291906146ff565b60405180910390fd5b50505050565b610f5f83838360405180602001604052806000815250611b96565b505050565b600d6020528060005260406000206000915090508054610f839061435d565b80601f0160208091040260200160405190810160405280929190818152602001828054610faf9061435d565b8015610ffc5780601f10610fd157610100808354040283529160200191610ffc565b820191906000526020600020905b815481529060010190602001808311610fdf57829003601f168201915b505050505081565b6001600281111561101857611017613dec565b5b600a60003373ffffffffffffffffffffffffffffffffffffffff1673ffffffffffffffffffffffffffffffffffffffff16815260200190815260200160002060009054906101000a900460ff16600281111561107757611076613dec565b5b146110b7576040517f08c379a00000000000000000000000000000000000000000000000000000000081526004016110ae90614297565b60405180910390fd5b6110c0826127c8565b6110ff576040517f08c379a00000000000000000000000000000000000000000000000000000000081526004016110f690614782565b60405180910390fd5b3373ffffffffffffffffffffffffffffffffffffffff1661111f836117df565b73ffffffffffffffffffffffffffffffffffffffff1614611175576040517f08c379a000000000000000000000000000000000000000000000000000000000815260040161116c906147ee565b60405180910390fd5b80600e600084815260200190815260200160002081905550817f2f9b23898410304c2b8c29547330c8ef08ad5f7c80b5204df939744931e27520826040516111bd9190613dd1565b60405180910390a25050565b6060600c60008373ffffffffffffffffffffffffffffffffffffffff1673ffffffffffffffffffffffffffffffffffffffff16815260200190815260200160002080548060200260200160405190810160405280929190818152602001828054801561125457602002820191906000526020600020905b815481526020019060010190808311611240575b50505050509050919050565b6001600281111561127457611273613dec565b5b600a60003373ffffffffffffffffffffffffffffffffffffffff1673ffffffffffffffffffffffffffffffffffffffff16815260200190815260200160002060009054906101000a900460ff1660028111156112d3576112d2613dec565b5b14611313576040517f08c379a000000000000000000000000000000000000000000000000000000000815260040161130a90614297565b60405180910390fd5b61131c836127c8565b61135b576040517f08c379a000000000000000000000000000000000000000000000000000000000815260040161135290614673565b60405180910390fd5b3373ffffffffffffffffffffffffffffffffffffffff1661137b846117df565b73ffffffffffffffffffffffffffffffffffffffff16146113d1576040517f08c379a00000000000000000000000000000000000000000000000000000000081526004016113c89061485a565b60405180910390fd5b81600b600085815260200190815260200160002060010160006101000a81548160ff0219169083600381111561140a57611409613dec565b5b021790555080600e600085815260200190815260200160002081905550827f6d63dff809eaa3125b19b928b3955c261658ff6781148e3d3e6a939b7bee2ba983604051611457919061460c565b60405180910390a2827f2f9b23898410304c2b8c29547330c8ef08ad5f7c80b5204df939744931e275208260405161148f9190613dd1565b60405180910390a2505050565b600960205280600052604060002060009150905080546114bb9061435d565b80601f01602080910402602001604051908101604052809291908181526020018280546114e79061435d565b80156115345780601f1061150957610100808354040283529160200191611534565b820191906000526020600020905b81548152906001019060200180831161151757829003601f168201915b505050505081565b600160028111156115505761154f613dec565b5b600a60003373ffffffffffffffffffffffffffffffffffffffff1673ffffffffffffffffffffffffffffffffffffffff16815260200190815260200160002060009054906101000a900460ff1660028111156115af576115ae613dec565b5b146115ef576040517f08c379a00000000000000000000000000000000000000000000000000000000081526004016115e690614297565b60405180910390fd5b6001600381111561160357611602613dec565b5b600b600083815260200190815260200160002060010160009054906101000a900460ff16600381111561163957611638613dec565b5b14611679576040517f08c379a0000000000000000000000000000000000000000000000000000000008152600401611670906148c6565b60405180910390fd5b600e60008281526020019081526020016000205434146116ce576040517f08c379a00000000000000000000000000000000000000000000000000000000081526004016116c590614932565b60405180910390fd5b33600f600083815260200190815260200160002060006101000a81548173ffffffffffffffffffffffffffffffffffffffff021916908373ffffffffffffffffffffffffffffffffffffffff1602179055506002600b600083815260200190815260200160002060010160006101000a81548160ff0219169083600381111561175a57611759613dec565b5b0217905550807f6d63dff809eaa3125b19b928b3955c261658ff6781148e3d3e6a939b7bee2ba96002604051611790919061460c565b60405180910390a23373ffffffffffffffffffffffffffffffffffffffff16817fc09888d0d13bc8be6e776deb914e6e8696b8167f87668e53dc967dd7ebb8a50060405160405180910390a350565b60006117ea826126e9565b9050919050565b600f6020528060005260406000206000915054906101000a900473ffffffffffffffffffffffffffffffffffffffff1681565b600c602052816000526040600020818154811061184057600080fd5b90600052602060002001600091509150505481565b60008073ffffffffffffffffffffffffffffffffffffffff168273ffffffffffffffffffffffffffffffffffffffff16036118c85760006040517f89c62b640000000000000000000000000000000000000000000000000000000081526004016118bf9190613b0f565b60405180910390fd5b600360008373ffffffffffffffffffffffffffffffffffffffff1673ffffffffffffffffffffffffffffffffffffffff168152602001908152602001600020549050919050565b611917612a23565b6119216000612aaa565b565b6000600281111561193757611936613dec565b5b600a60003373ffffffffffffffffffffffffffffffffffffffff1673ffffffffffffffffffffffffffffffffffffffff16815260200190815260200160002060009054906101000a900460ff16600281111561199657611995613dec565b5b146119d6576040517f08c379a00000000000000000000000000000000000000000000000000000000081526004016119cd9061499e565b60405180910390fd5b6001600a60003373ffffffffffffffffffffffffffffffffffffffff1673ffffffffffffffffffffffffffffffffffffffff16815260200190815260200160002060006101000a81548160ff02191690836002811115611a3957611a38613dec565b5b02179055503373ffffffffffffffffffffffffffffffffffffffff167f48cac28ad4dc618e15f4c2dd5e97751182f166de97b25618318b2112aa951a2f604051611a82906149e4565b60405180910390a2565b600e6020528060005260406000206000915090505481565b6000600760009054906101000a900473ffffffffffffffffffffffffffffffffffffffff16905090565b606060018054611add9061435d565b80601f0160208091040260200160405190810160405280929190818152602001828054611b099061435d565b8015611b565780601f10611b2b57610100808354040283529160200191611b56565b820191906000526020600020905b815481529060010190602001808311611b3957829003601f168201915b5050505050905090565b600a6020528060005260406000206000915054906101000a900460ff1681565b611b92611b8b6127ae565b8383612b70565b5050565b611ba1848484610e42565b611bb5611bac6127ae565b85858585612cdf565b50505050565b60006002811115611bcf57611bce613dec565b5b600a60003373ffffffffffffffffffffffffffffffffffffffff1673ffffffffffffffffffffffffffffffffffffffff16815260200190815260200160002060009054906101000a900460ff166002811115611c2e57611c2d613dec565b5b14611c6e576040517f08c379a0000000000000000000000000000000000000000000000000000000008152600401611c659061499e565b60405180910390fd5b6001600a60003373ffffffffffffffffffffffffffffffffffffffff1673ffffffffffffffffffffffffffffffffffffffff16815260200190815260200160002060006101000a81548160ff02191690836002811115611cd157611cd0613dec565b5b021790555080600960003373ffffffffffffffffffffffffffffffffffffffff1673ffffffffffffffffffffffffffffffffffffffff1681526020019081526020016000209081611d22919061453a565b503373ffffffffffffffffffffffffffffffffffffffff167f48cac28ad4dc618e15f4c2dd5e97751182f166de97b25618318b2112aa951a2f82604051611d699190613ab1565b60405180910390a250565b60016002811115611d8857611d87613dec565b5b600a60003373ffffffffffffffffffffffffffffffffffffffff1673ffffffffffffffffffffffffffffffffffffffff16815260200190815260200160002060009054906101000a900460ff166002811115611de757611de6613dec565b5b14611e27576040517f08c379a0000000000000000000000000000000000000000000000000000000008152600401611e1e90614297565b60405180910390fd5b6000611e32836117df565b90503373ffffffffffffffffffffffffffffffffffffffff168173ffffffffffffffffffffffffffffffffffffffff1614611ea2576040517f08c379a0000000000000000000000000000000000000000000000000000000008152600401611e9990614a50565b60405180910390fd5b8173ffffffffffffffffffffffffffffffffffffffff16600f600085815260200190815260200160002060009054906101000a900473ffffffffffffffffffffffffffffffffffffffff1673ffffffffffffffffffffffffffffffffffffffff1614611f43576040517f08c379a0000000000000000000000000000000000000000000000000000000008152600401611f3a90614abc565b60405180910390fd5b611f4d8184612e90565b600c60008373ffffffffffffffffffffffffffffffffffffffff1673ffffffffffffffffffffffffffffffffffffffff168152602001908152602001600020839080600181540180825580915050600190039060005260206000200160009091909190915055611fbe818385612f97565b6003600b600085815260200190815260200160002060010160006101000a81548160ff02191690836003811115611ff857611ff7613dec565b5b0217905550827f6d63dff809eaa3125b19b928b3955c261658ff6781148e3d3e6a939b7bee2ba9600360405161202e919061460c565b60405180910390a26000600e60008581526020019081526020016000205490506000600f600086815260200190815260200160002060006101000a81548173ffffffffffffffffffffffffffffffffffffffff021916908373ffffffffffffffffffffffffffffffffffffffff1602179055506000600e6000868152602001908152602001600020819055508173ffffffffffffffffffffffffffffffffffffffff166108fc829081150290604051600060405180830381858888f19350505050158015612100573d6000803e3d6000fd5b508273ffffffffffffffffffffffffffffffffffffffff16847f5e569b537d45304a15b956ec8cb2aaa2dfcff5385fdb4828e7c914a388e805cf60405160405180910390a350505050565b6060612156826127c8565b612195576040517f08c379a000000000000000000000000000000000000000000000000000000000815260040161218c90614b28565b60405180910390fd5b600b60008381526020019081526020016000206002016040516020016121bb9190614c22565b6040516020818303038152906040529050919050565b6060600060016008546121e49190614c44565b905060008167ffffffffffffffff81111561220257612201613832565b5b6040519080825280602002602001820160405280156122305781602001602082028036833780820191505090505b50905060005b828110156122775760018161224b9190614c78565b82828151811061225e5761225d614cac565b5b6020026020010181815250508080600101915050612236565b50809250505090565b600b6020528060005260406000206000915090508060000154908060010160009054906101000a900460ff16908060020180546122bc9061435d565b80601f01602080910402602001604051908101604052809291908181526020018280546122e89061435d565b80156123355780601f1061230a57610100808354040283529160200191612335565b820191906000526020600020905b81548152906001019060200180831161231857829003601f168201915b5050505050905083565b6000600560008473ffffffffffffffffffffffffffffffffffffffff1673ffffffffffffffffffffffffffffffffffffffff16815260200190815260200160002060008373ffffffffffffffffffffffffffffffffffffffff1673ffffffffffffffffffffffffffffffffffffffff16815260200190815260200160002060009054906101000a900460ff16905092915050565b6123db6136b7565b600060606123e8846127c8565b612427576040517f08c379a000000000000000000000000000000000000000000000000000000000815260040161241e90614782565b60405180910390fd5b600b6000858152602001908152602001600020612443856117df565b61244c86613104565b82604051806060016040529081600082015481526020016001820160009054906101000a900460ff16600381111561248757612486613dec565b5b600381111561249957612498613dec565b5b81526020016002820180546124ad9061435d565b80601f01602080910402602001604051908101604052809291908181526020018280546124d99061435d565b80156125265780601f106124fb57610100808354040283529160200191612526565b820191906000526020600020905b81548152906001019060200180831161250957829003601f168201915b50505050508152505092509250925092509193909250565b612546612a23565b600073ffffffffffffffffffffffffffffffffffffffff168173ffffffffffffffffffffffffffffffffffffffff16036125b85760006040517f1e4fbdf70000000000000000000000000000000000000000000000000000000081526004016125af9190613b0f565b60405180910390fd5b6125c181612aaa565b50565b60007f80ac58cd000000000000000000000000000000000000000000000000000000007bffffffffffffffffffffffffffffffffffffffffffffffffffffffff1916827bffffffffffffffffffffffffffffffffffffffffffffffffffffffff1916148061268f57507f5b5e139f000000000000000000000000000000000000000000000000000000007bffffffffffffffffffffffffffffffffffffffffffffffffffffffff1916827bffffffffffffffffffffffffffffffffffffffffffffffffffffffff1916145b8061269f575061269e826131a9565b5b9050919050565b6126c0828260405180602001604052806000815250613213565b5050565b80600d600084815260200190815260200160002090816126e4919061453a565b505050565b6000806126f583613237565b9050600073ffffffffffffffffffffffffffffffffffffffff168173ffffffffffffffffffffffffffffffffffffffff160361276857826040517f7e27328900000000000000000000000000000000000000000000000000000000815260040161275f9190613dd1565b60405180910390fd5b80915050919050565b60006004600083815260200190815260200160002060009054906101000a900473ffffffffffffffffffffffffffffffffffffffff169050919050565b600033905090565b6127c38383836001613274565b505050565b60008073ffffffffffffffffffffffffffffffffffffffff166127ea83613237565b73ffffffffffffffffffffffffffffffffffffffff1614159050919050565b60008061281584613237565b9050600073ffffffffffffffffffffffffffffffffffffffff168373ffffffffffffffffffffffffffffffffffffffff161461285757612856818486613439565b5b600073ffffffffffffffffffffffffffffffffffffffff168173ffffffffffffffffffffffffffffffffffffffff16146128e857612899600085600080613274565b6001600360008373ffffffffffffffffffffffffffffffffffffffff1673ffffffffffffffffffffffffffffffffffffffff168152602001908152602001600020600082825403925050819055505b600073ffffffffffffffffffffffffffffffffffffffff168573ffffffffffffffffffffffffffffffffffffffff161461296b576001600360008773ffffffffffffffffffffffffffffffffffffffff1673ffffffffffffffffffffffffffffffffffffffff168152602001908152602001600020600082825401925050819055505b846002600086815260200190815260200160002060006101000a81548173ffffffffffffffffffffffffffffffffffffffff021916908373ffffffffffffffffffffffffffffffffffffffff160217905550838573ffffffffffffffffffffffffffffffffffffffff168273ffffffffffffffffffffffffffffffffffffffff167fddf252ad1be2c89b69c2b068fc378daa952ba7f163c4a11628f55a4df523b3ef60405160405180910390a4809150509392505050565b612a2b6127ae565b73ffffffffffffffffffffffffffffffffffffffff16612a49611aa4565b73ffffffffffffffffffffffffffffffffffffffff1614612aa857612a6c6127ae565b6040517f118cdaa7000000000000000000000000000000000000000000000000000000008152600401612a9f9190613b0f565b60405180910390fd5b565b6000600760009054906101000a900473ffffffffffffffffffffffffffffffffffffffff16905081600760006101000a81548173ffffffffffffffffffffffffffffffffffffffff021916908373ffffffffffffffffffffffffffffffffffffffff1602179055508173ffffffffffffffffffffffffffffffffffffffff168173ffffffffffffffffffffffffffffffffffffffff167f8be0079c531659141344cd1fd0a4f28419497f9722a3daafe3b4186f6b6457e060405160405180910390a35050565b600073ffffffffffffffffffffffffffffffffffffffff168273ffffffffffffffffffffffffffffffffffffffff1603612be157816040517f5b08ba18000000000000000000000000000000000000000000000000000000008152600401612bd89190613b0f565b60405180910390fd5b80600560008573ffffffffffffffffffffffffffffffffffffffff1673ffffffffffffffffffffffffffffffffffffffff16815260200190815260200160002060008473ffffffffffffffffffffffffffffffffffffffff1673ffffffffffffffffffffffffffffffffffffffff16815260200190815260200160002060006101000a81548160ff0219169083151502179055508173ffffffffffffffffffffffffffffffffffffffff168373ffffffffffffffffffffffffffffffffffffffff167f17307eab39ab6107e8899845ad3d59bd9653f200f220920489ca2b5937696c3183604051612cd2919061379e565b60405180910390a3505050565b60008373ffffffffffffffffffffffffffffffffffffffff163b1115612e89578273ffffffffffffffffffffffffffffffffffffffff1663150b7a02868685856040518563ffffffff1660e01b8152600401612d3e9493929190614d30565b6020604051808303816000875af1925050508015612d7a57506040513d601f19601f82011682018060405250810190612d779190614d91565b60015b612dfe573d8060008114612daa576040519150601f19603f3d011682016040523d82523d6000602084013e612daf565b606091505b506000815103612df657836040517f64a0ae92000000000000000000000000000000000000000000000000000000008152600401612ded9190613b0f565b60405180910390fd5b805181602001fd5b63150b7a0260e01b7bffffffffffffffffffffffffffffffffffffffffffffffffffffffff1916817bffffffffffffffffffffffffffffffffffffffffffffffffffffffff191614612e8757836040517f64a0ae92000000000000000000000000000000000000000000000000000000008152600401612e7e9190613b0f565b60405180910390fd5b505b5050505050565b6000600c60008473ffffffffffffffffffffffffffffffffffffffff1673ffffffffffffffffffffffffffffffffffffffff168152602001908152602001600020905060005b8180549050811015612f905782828281548110612ef657612ef5614cac565b5b906000526020600020015403612f83578160018380549050612f189190614c44565b81548110612f2957612f28614cac565b5b9060005260206000200154828281548110612f4757612f46614cac565b5b906000526020600020018190555081805480612f6657612f65614dbe565b5b600190038181906000526020600020016000905590555050612f93565b8080600101915050612ed6565b50505b5050565b600073ffffffffffffffffffffffffffffffffffffffff168273ffffffffffffffffffffffffffffffffffffffff16036130095760006040517f64a0ae920000000000000000000000000000000000000000000000000000000081526004016130009190613b0f565b60405180910390fd5b600061301783836000612809565b9050600073ffffffffffffffffffffffffffffffffffffffff168173ffffffffffffffffffffffffffffffffffffffff160361308a57816040517f7e2732890000000000000000000000000000000000000000000000000000000081526004016130819190613dd1565b60405180910390fd5b8373ffffffffffffffffffffffffffffffffffffffff168173ffffffffffffffffffffffffffffffffffffffff16146130fe578382826040517f64283d7b0000000000000000000000000000000000000000000000000000000081526004016130f5939291906146ff565b60405180910390fd5b50505050565b6060600d600083815260200190815260200160002080546131249061435d565b80601f01602080910402602001604051908101604052809291908181526020018280546131509061435d565b801561319d5780601f106131725761010080835404028352916020019161319d565b820191906000526020600020905b81548152906001019060200180831161318057829003601f168201915b50505050509050919050565b60007f01ffc9a7000000000000000000000000000000000000000000000000000000007bffffffffffffffffffffffffffffffffffffffffffffffffffffffff1916827bffffffffffffffffffffffffffffffffffffffffffffffffffffffff1916149050919050565b61321d83836134fd565b6132326132286127ae565b6000858585612cdf565b505050565b60006002600083815260200190815260200160002060009054906101000a900473ffffffffffffffffffffffffffffffffffffffff169050919050565b80806132ad5750600073ffffffffffffffffffffffffffffffffffffffff168273ffffffffffffffffffffffffffffffffffffffff1614155b156133e15760006132bd846126e9565b9050600073ffffffffffffffffffffffffffffffffffffffff168373ffffffffffffffffffffffffffffffffffffffff161415801561332857508273ffffffffffffffffffffffffffffffffffffffff168173ffffffffffffffffffffffffffffffffffffffff1614155b801561333b5750613339818461233f565b155b1561337d57826040517fa9fbf51f0000000000000000000000000000000000000000000000000000000081526004016133749190613b0f565b60405180910390fd5b81156133df57838573ffffffffffffffffffffffffffffffffffffffff168273ffffffffffffffffffffffffffffffffffffffff167f8c5be1e5ebec7d5bd14f71427d1e84f3dd0314c0f7b2291e5b200ac8c7c3b92560405160405180910390a45b505b836004600085815260200190815260200160002060006101000a81548173ffffffffffffffffffffffffffffffffffffffff021916908373ffffffffffffffffffffffffffffffffffffffff16021790555050505050565b6134448383836135f6565b6134f857600073ffffffffffffffffffffffffffffffffffffffff168373ffffffffffffffffffffffffffffffffffffffff16036134b957806040517f7e2732890000000000000000000000000000000000000000000000000000000081526004016134b09190613dd1565b60405180910390fd5b81816040517f177e802f0000000000000000000000000000000000000000000000000000000081526004016134ef929190614ded565b60405180910390fd5b505050565b600073ffffffffffffffffffffffffffffffffffffffff168273ffffffffffffffffffffffffffffffffffffffff160361356f5760006040517f64a0ae920000000000000000000000000000000000000000000000000000000081526004016135669190613b0f565b60405180910390fd5b600061357d83836000612809565b9050600073ffffffffffffffffffffffffffffffffffffffff168173ffffffffffffffffffffffffffffffffffffffff16146135f15760006040517f73c6ac6e0000000000000000000000000000000000000000000000000000000081526004016135e89190613b0f565b60405180910390fd5b505050565b60008073ffffffffffffffffffffffffffffffffffffffff168373ffffffffffffffffffffffffffffffffffffffff16141580156136ae57508273ffffffffffffffffffffffffffffffffffffffff168473ffffffffffffffffffffffffffffffffffffffff16148061366f575061366e848461233f565b5b806136ad57508273ffffffffffffffffffffffffffffffffffffffff1661369583612771565b73ffffffffffffffffffffffffffffffffffffffff16145b5b90509392505050565b604051806060016040528060008152602001600060038111156136dd576136dc613dec565b5b8152602001606081525090565b6000604051905090565b600080fd5b600080fd5b60007fffffffff0000000000000000000000000000000000000000000000000000000082169050919050565b613733816136fe565b811461373e57600080fd5b50565b6000813590506137508161372a565b92915050565b60006020828403121561376c5761376b6136f4565b5b600061377a84828501613741565b91505092915050565b60008115159050919050565b61379881613783565b82525050565b60006020820190506137b3600083018461378f565b92915050565b600073ffffffffffffffffffffffffffffffffffffffff82169050919050565b60006137e4826137b9565b9050919050565b6137f4816137d9565b81146137ff57600080fd5b50565b600081359050613811816137eb565b92915050565b600080fd5b600080fd5b6000601f19601f8301169050919050565b7f4e487b7100000000000000000000000000000000000000000000000000000000600052604160045260246000fd5b61386a82613821565b810181811067ffffffffffffffff8211171561388957613888613832565b5b80604052505050565b600061389c6136ea565b90506138a88282613861565b919050565b600067ffffffffffffffff8211156138c8576138c7613832565b5b6138d182613821565b9050602081019050919050565b82818337600083830152505050565b60006139006138fb846138ad565b613892565b90508281526020810184848401111561391c5761391b61381c565b5b6139278482856138de565b509392505050565b600082601f83011261394457613943613817565b5b81356139548482602086016138ed565b91505092915050565b6000819050919050565b6139708161395d565b811461397b57600080fd5b50565b60008135905061398d81613967565b92915050565b600080600080608085870312156139ad576139ac6136f4565b5b60006139bb87828801613802565b945050602085013567ffffffffffffffff8111156139dc576139db6136f9565b5b6139e88782880161392f565b935050604085013567ffffffffffffffff811115613a0957613a086136f9565b5b613a158782880161392f565b9250506060613a268782880161397e565b91505092959194509250565b600081519050919050565b600082825260208201905092915050565b60005b83811015613a6c578082015181840152602081019050613a51565b60008484015250505050565b6000613a8382613a32565b613a8d8185613a3d565b9350613a9d818560208601613a4e565b613aa681613821565b840191505092915050565b60006020820190508181036000830152613acb8184613a78565b905092915050565b600060208284031215613ae957613ae86136f4565b5b6000613af78482850161397e565b91505092915050565b613b09816137d9565b82525050565b6000602082019050613b246000830184613b00565b92915050565b60008060408385031215613b4157613b406136f4565b5b6000613b4f85828601613802565b9250506020613b608582860161397e565b9150509250929050565b60048110613b7757600080fd5b50565b600081359050613b8981613b6a565b92915050565b60008060408385031215613ba657613ba56136f4565b5b6000613bb48582860161397e565b9250506020613bc585828601613b7a565b9150509250929050565b600080600060608486031215613be857613be76136f4565b5b6000613bf686828701613802565b9350506020613c0786828701613802565b9250506040613c188682870161397e565b9150509250925092565b60008060408385031215613c3957613c386136f4565b5b6000613c478582860161397e565b9250506020613c588582860161397e565b9150509250929050565b600060208284031215613c7857613c776136f4565b5b6000613c8684828501613802565b91505092915050565b600081519050919050565b600082825260208201905092915050565b6000819050602082019050919050565b613cc48161395d565b82525050565b6000613cd68383613cbb565b60208301905092915050565b6000602082019050919050565b6000613cfa82613c8f565b613d048185613c9a565b9350613d0f83613cab565b8060005b83811015613d40578151613d278882613cca565b9750613d3283613ce2565b925050600181019050613d13565b5085935050505092915050565b60006020820190508181036000830152613d678184613cef565b905092915050565b600080600060608486031215613d8857613d876136f4565b5b6000613d968682870161397e565b9350506020613da786828701613b7a565b9250506040613db88682870161397e565b9150509250925092565b613dcb8161395d565b82525050565b6000602082019050613de66000830184613dc2565b92915050565b7f4e487b7100000000000000000000000000000000000000000000000000000000600052602160045260246000fd5b60038110613e2c57613e2b613dec565b5b50565b6000819050613e3d82613e1b565b919050565b6000613e4d82613e2f565b9050919050565b613e5d81613e42565b82525050565b6000602082019050613e786000830184613e54565b92915050565b613e8781613783565b8114613e9257600080fd5b50565b600081359050613ea481613e7e565b92915050565b60008060408385031215613ec157613ec06136f4565b5b6000613ecf85828601613802565b9250506020613ee085828601613e95565b9150509250929050565b600067ffffffffffffffff821115613f0557613f04613832565b5b613f0e82613821565b9050602081019050919050565b6000613f2e613f2984613eea565b613892565b905082815260208101848484011115613f4a57613f4961381c565b5b613f558482856138de565b509392505050565b600082601f830112613f7257613f71613817565b5b8135613f82848260208601613f1b565b91505092915050565b60008060008060808587031215613fa557613fa46136f4565b5b6000613fb387828801613802565b9450506020613fc487828801613802565b9350506040613fd58782880161397e565b925050606085013567ffffffffffffffff811115613ff657613ff56136f9565b5b61400287828801613f5d565b91505092959194509250565b600060208284031215614024576140236136f4565b5b600082013567ffffffffffffffff811115614042576140416136f9565b5b61404e8482850161392f565b91505092915050565b6000806040838503121561406e5761406d6136f4565b5b600061407c8582860161397e565b925050602061408d85828601613802565b9150509250929050565b600481106140a8576140a7613dec565b5b50565b60008190506140b982614097565b919050565b60006140c9826140ab565b9050919050565b6140d9816140be565b82525050565b60006060820190506140f46000830186613dc2565b61410160208301856140d0565b81810360408301526141138184613a78565b9050949350505050565b60008060408385031215614134576141336136f4565b5b600061414285828601613802565b925050602061415385828601613802565b9150509250929050565b614166816140be565b82525050565b600082825260208201905092915050565b600061418882613a32565b614192818561416c565b93506141a2818560208601613a4e565b6141ab81613821565b840191505092915050565b60006060830160008301516141ce6000860182613cbb565b5060208301516141e1602086018261415d565b50604083015184820360408601526141f9828261417d565b9150508091505092915050565b6000606082019050818103600083015261422081866141b6565b905061422f6020830185613b00565b81810360408301526142418184613a78565b9050949350505050565b7f4f6e6c792072656769737465726564207573657273207065726d697474656400600082015250565b6000614281601f83613a3d565b915061428c8261424b565b602082019050919050565b600060208201905081810360008301526142b081614274565b9050919050565b7f4e487b7100000000000000000000000000000000000000000000000000000000600052601160045260246000fd5b60006142f18261395d565b91507fffffffffffffffffffffffffffffffffffffffffffffffffffffffffffffffff8203614323576143226142b7565b5b600182019050919050565b7f4e487b7100000000000000000000000000000000000000000000000000000000600052602260045260246000fd5b6000600282049050600182168061437557607f821691505b6020821081036143885761438761432e565b5b50919050565b60008190508160005260206000209050919050565b60006020601f8301049050919050565b600082821b905092915050565b6000600883026143f07fffffffffffffffffffffffffffffffffffffffffffffffffffffffffffffffff826143b3565b6143fa86836143b3565b95508019841693508086168417925050509392505050565b6000819050919050565b600061443761443261442d8461395d565b614412565b61395d565b9050919050565b6000819050919050565b6144518361441c565b61446561445d8261443e565b8484546143c0565b825550505050565b600090565b61447a61446d565b614485818484614448565b505050565b5b818110156144a95761449e600082614472565b60018101905061448b565b5050565b601f8211156144ee576144bf8161438e565b6144c8846143a3565b810160208510156144d7578190505b6144eb6144e3856143a3565b83018261448a565b50505b505050565b600082821c905092915050565b6000614511600019846008026144f3565b1980831691505092915050565b600061452a8383614500565b9150826002028217905092915050565b61454382613a32565b67ffffffffffffffff81111561455c5761455b613832565b5b614566825461435d565b6145718282856144ad565b600060209050601f8311600181146145a45760008415614592578287015190505b61459c858261451e565b865550614604565b601f1984166145b28661438e565b60005b828110156145da578489015182556001820191506020850194506020810190506145b5565b868310156145f757848901516145f3601f891682614500565b8355505b6001600288020188555050505b505050505050565b600060208201905061462160008301846140d0565b92915050565b7f4c616e64206e6f7420666f756e64000000000000000000000000000000000000600082015250565b600061465d600e83613a3d565b915061466882614627565b602082019050919050565b6000602082019050818103600083015261468c81614650565b9050919050565b7f4f6e6c79206f776e65722063616e207570646174652073746174757300000000600082015250565b60006146c9601c83613a3d565b91506146d482614693565b602082019050919050565b600060208201905081810360008301526146f8816146bc565b9050919050565b60006060820190506147146000830186613b00565b6147216020830185613dc2565b61472e6040830184613b00565b949350505050565b7f4c616e6420646f6573206e6f7420657869737400000000000000000000000000600082015250565b600061476c601383613a3d565b915061477782614736565b602082019050919050565b6000602082019050818103600083015261479b8161475f565b9050919050565b7f4f6e6c79206c616e64206f776e65722063616e20757064617465207072696365600082015250565b60006147d8602083613a3d565b91506147e3826147a2565b602082019050919050565b60006020820190508181036000830152614807816147cb565b9050919050565b7f4f6e6c79206c616e64206f776e65722063616e20757064617465000000000000600082015250565b6000614844601a83613a3d565b915061484f8261480e565b602082019050919050565b6000602082019050818103600083015261487381614837565b9050919050565b7f4c616e64206e6f7420666f722073616c65000000000000000000000000000000600082015250565b60006148b0601183613a3d565b91506148bb8261487a565b602082019050919050565b600060208201905081810360008301526148df816148a3565b9050919050565b7f496e636f7272656374207061796d656e7420616d6f756e740000000000000000600082015250565b600061491c601883613a3d565b9150614927826148e6565b602082019050919050565b6000602082019050818103600083015261494b8161490f565b9050919050565b7f416c726561647920726567697374657265640000000000000000000000000000600082015250565b6000614988601283613a3d565b915061499382614952565b602082019050919050565b600060208201905081810360008301526149b78161497b565b9050919050565b50565b60006149ce600083613a3d565b91506149d9826149be565b600082019050919050565b600060208201905081810360008301526149fd816149c1565b9050919050565b7f4f6e6c79206f776e65722063616e20617070726f7665207472616e7366657200600082015250565b6000614a3a601f83613a3d565b9150614a4582614a04565b602082019050919050565b60006020820190508181036000830152614a6981614a2d565b9050919050565b7f4275796572206d69736d61746368000000000000000000000000000000000000600082015250565b6000614aa6600e83613a3d565b9150614ab182614a70565b602082019050919050565b60006020820190508181036000830152614ad581614a99565b9050919050565b7f546f6b656e20646f6573206e6f74206578697374000000000000000000000000600082015250565b6000614b12601483613a3d565b9150614b1d82614adc565b602082019050919050565b60006020820190508181036000830152614b4181614b05565b9050919050565b600081905092915050565b7f697066733a2f2f00000000000000000000000000000000000000000000000000600082015250565b6000614b89600783614b48565b9150614b9482614b53565b600782019050919050565b60008154614bac8161435d565b614bb68186614b48565b94506001821660008114614bd15760018114614be657614c19565b60ff1983168652811515820286019350614c19565b614bef8561438e565b60005b83811015614c1157815481890152600182019150602081019050614bf2565b838801955050505b50505092915050565b6000614c2d82614b7c565b9150614c398284614b9f565b915081905092915050565b6000614c4f8261395d565b9150614c5a8361395d565b9250828203905081811115614c7257614c716142b7565b5b92915050565b6000614c838261395d565b9150614c8e8361395d565b9250828201905080821115614ca657614ca56142b7565b5b92915050565b7f4e487b7100000000000000000000000000000000000000000000000000000000600052603260045260246000fd5b600081519050919050565b600082825260208201905092915050565b6000614d0282614cdb565b614d0c8185614ce6565b9350614d1c818560208601613a4e565b614d2581613821565b840191505092915050565b6000608082019050614d456000830187613b00565b614d526020830186613b00565b614d5f6040830185613dc2565b8181036060830152614d718184614cf7565b905095945050505050565b600081519050614d8b8161372a565b92915050565b600060208284031215614da757614da66136f4565b5b6000614db584828501614d7c565b91505092915050565b7f4e487b7100000000000000000000000000000000000000000000000000000000600052603160045260246000fd5b6000604082019050614e026000830185613b00565b614e0f6020830184613dc2565b939250505056fea26469706673582212203ddd6d5ef7c01d6cf55ef696d854944faac9173424b87e5f51de989688ec5eda64736f6c634300081c0033",
  "linkReferences": {},
  "deployedLinkReferences": {}
}