{
  "_format": "hh-sol-artifact-1",
  "contractName": "LandRegistry",
  "sourceName": "contracts/LandRegistry.sol",
  "abi": [
    {
      "inputs": [],
      "stateMutability": "nonpayable",
      "type": "constructor"
    },
    {
      "inputs": [
        {
          "internalType": "address",
          "name": "sender",
          "type": "address"
        },
        {
          "internalType": "uint256",
          "name": "tokenId",
          "type": "uint256"
        },
        {
          "internalType": "address",
          "name": "owner",
          "type": "address"
        }
      ],
      "name": "ERC721IncorrectOwner",
      "type": "error"
    },
    {
      "inputs": [
        {
          "internalType": "address",
          "name": "operator",
          "type": "address"
        },
        {
          "internalType": "uint256",
          "name": "tokenId",
          "type": "uint256"
        }
      ],
      "name": "ERC721InsufficientApproval",
      "type": "error"
    },
    {
      "inputs": [
        {
          "internalType": "address",
          "name": "approver",
          "type": "address"
        }
      ],
      "name": "ERC721InvalidApprover",
      "type": "error"
    },
    {
      "inputs": [
        {
          "internalType": "address",
          "name": "operator",
          "type": "address"
        }
      ],
      "name": "ERC721InvalidOperator",
      "type": "error"
    },
    {
      "inputs": [
        {
          "internalType": "address",
          "name": "owner",
          "type": "address"
        }
      ],
      "name": "ERC721InvalidOwner",
      "type": "error"
    },
    {
      "inputs": [
        {
          "internalType": "address",
          "name": "receiver",
          "type": "address"
        }
      ],
      "name": "ERC721InvalidReceiver",
      "type": "error"
    },
    {
      "inputs": [
        {
          "internalType": "address",
          "name": "sender",
          "type": "address"
        }
      ],
      "name": "ERC721InvalidSender",
      "type": "error"
    },
    {
      "inputs": [
        {
          "internalType": "uint256",
          "name": "tokenId",
          "type": "uint256"
        }
      ],
      "name": "ERC721NonexistentToken",
      "type": "error"
    },
    {
      "inputs": [
        {
          "internalType": "address",
          "name": "owner",
          "type": "address"
        }
      ],
      "name": "OwnableInvalidOwner",
      "type": "error"
    },
    {
      "inputs": [
        {
          "internalType": "address",
          "name": "account",
          "type": "address"
        }
      ],
      "name": "OwnableUnauthorizedAccount",
      "type": "error"
    },
    {
      "anonymous": false,
      "inputs": [
        {
          "indexed": true,
          "internalType": "address",
          "name": "owner",
          "type": "address"
        },
        {
          "indexed": true,
          "internalType": "address",
          "name": "approved",
          "type": "address"
        },
        {
          "indexed": true,
          "internalType": "uint256",
          "name": "tokenId",
          "type": "uint256"
        }
      ],
      "name": "Approval",
      "type": "event"
    },
    {
      "anonymous": false,
      "inputs": [
        {
          "indexed": true,
          "internalType": "address",
          "name": "owner",
          "type": "address"
        },
        {
          "indexed": true,
          "internalType": "address",
          "name": "operator",
          "type": "address"
        },
        {
          "indexed": false,
          "internalType": "bool",
          "name": "approved",
          "type": "bool"
        }
      ],
      "name": "ApprovalForAll",
      "type": "event"
    },
    {
      "anonymous": false,
      "inputs": [
        {
          "indexed": false,
          "internalType": "uint256",
          "name": "_fromTokenId",
          "type": "uint256"
        },
        {
          "indexed": false,
          "internalType": "uint256",
          "name": "_toTokenId",
          "type": "uint256"
        }
      ],
      "name": "BatchMetadataUpdate",
      "type": "event"
    },
    {
      "anonymous": false,
      "inputs": [
        {
          "indexed": true,
          "internalType": "uint256",
          "name": "landId",
          "type": "uint256"
        },
        {
          "indexed": false,
          "internalType": "uint256",
          "name": "priceWei",
          "type": "uint256"
        }
      ],
      "name": "LandListed",
      "type": "event"
    },
    {
      "anonymous": false,
      "inputs": [
        {
          "indexed": true,
          "internalType": "uint256",
          "name": "landId",
          "type": "uint256"
        },
        {
          "indexed": true,
          "internalType": "address",
          "name": "newOwner",
          "type": "address"
        }
      ],
      "name": "LandOwnershipTransferred",
      "type": "event"
    },
    {
      "anonymous": false,
      "inputs": [
        {
          "indexed": true,
          "internalType": "uint256",
          "name": "landId",
          "type": "uint256"
        },
        {
          "indexed": true,
          "internalType": "address",
          "name": "owner",
          "type": "address"
        },
        {
          "indexed": false,
          "internalType": "string",
          "name": "metadataCID",
          "type": "string"
        }
      ],
      "name": "LandRegistered",
      "type": "event"
    },
    {
      "anonymous": false,
      "inputs": [
        {
          "indexed": true,
          "internalType": "uint256",
          "name": "landId",
          "type": "uint256"
        },
        {
          "indexed": false,
          "internalType": "enum LandRegistry.LandStatus",
          "name": "newStatus",
          "type": "uint8"
        }
      ],
      "name": "LandStatusUpdated",
      "type": "event"
    },
    {
      "anonymous": false,
      "inputs": [
        {
          "indexed": false,
          "internalType": "uint256",
          "name": "_tokenId",
          "type": "uint256"
        }
      ],
      "name": "MetadataUpdate",
      "type": "event"
    },
    {
      "anonymous": false,
      "inputs": [
        {
          "indexed": true,
          "internalType": "address",
          "name": "previousOwner",
          "type": "address"
        },
        {
          "indexed": true,
          "internalType": "address",
          "name": "newOwner",
          "type": "address"
        }
      ],
      "name": "OwnershipTransferred",
      "type": "event"
    },
    {
      "anonymous": false,
      "inputs": [
        {
          "indexed": true,
          "internalType": "uint256",
          "name": "landId",
          "type": "uint256"
        },
        {
          "indexed": true,
          "internalType": "address",
          "name": "buyer",
          "type": "address"
        }
      ],
      "name": "PurchaseRequested",
      "type": "event"
    },
    {
      "anonymous": false,
      "inputs": [
        {
          "indexed": true,
          "internalType": "address",
          "name": "from",
          "type": "address"
        },
        {
          "indexed": true,
          "internalType": "address",
          "name": "to",
          "type": "address"
        },
        {
          "indexed": true,
          "internalType": "uint256",
          "name": "tokenId",
          "type": "uint256"
        }
      ],
      "name": "Transfer",
      "type": "event"
    },
    {
      "anonymous": false,
      "inputs": [
        {
          "indexed": true,
          "internalType": "address",
          "name": "user",
          "type": "address"
        },
        {
          "indexed": false,
          "internalType": "string",
          "name": "metadataCID",
          "type": "string"
        }
      ],
      "name": "UserRegistered",
      "type": "event"
    },
    {
      "inputs": [
        {
          "internalType": "address",
          "name": "to",
          "type": "address"
        },
        {
          "internalType": "uint256",
          "name": "tokenId",
          "type": "uint256"
        }
      ],
      "name": "approve",
      "outputs": [],
      "stateMutability": "nonpayable",
      "type": "function"
    },
    {
      "inputs": [
        {
          "internalType": "address",
          "name": "owner",
          "type": "address"
        }
      ],
      "name": "balanceOf",
      "outputs": [
        {
          "internalType": "uint256",
          "name": "",
          "type": "uint256"
        }
      ],
      "stateMutability": "view",
      "type": "function"
    },
    {
      "inputs": [],
      "name": "getAllLandIds",
      "outputs": [
        {
          "internalType": "uint256[]",
          "name": "",
          "type": "uint256[]"
        }
      ],
      "stateMutability": "view",
      "type": "function"
    },
    {
      "inputs": [
        {
          "internalType": "uint256",
          "name": "tokenId",
          "type": "uint256"
        }
      ],
      "name": "getApproved",
      "outputs": [
        {
          "internalType": "address",
          "name": "",
          "type": "address"
        }
      ],
      "stateMutability": "view",
      "type": "function"
    },
    {
      "inputs": [
        {
          "internalType": "uint256",
          "name": "landId",
          "type": "uint256"
        }
      ],
      "name": "getLand",
      "outputs": [
        {
          "components": [
            {
              "internalType": "uint256",
              "name": "landId",
              "type": "uint256"
            },
            {
              "internalType": "enum LandRegistry.LandStatus",
              "name": "status",
              "type": "uint8"
            },
            {
              "internalType": "string",
              "name": "metadataCID",
              "type": "string"
            }
          ],
          "internalType": "struct LandRegistry.Land",
          "name": "land",
          "type": "tuple"
        },
        {
          "internalType": "address",
          "name": "owner",
          "type": "address"
        },
        {
          "internalType": "string",
          "name": "publicCID",
          "type": "string"
        }
      ],
      "stateMutability": "view",
      "type": "function"
    },
    {
      "inputs": [
        {
          "internalType": "address",
          "name": "owner",
          "type": "address"
        }
      ],
      "name": "getOwnedLands",
      "outputs": [
        {
          "internalType": "uint256[]",
          "name": "",
          "type": "uint256[]"
        }
      ],
      "stateMutability": "view",
      "type": "function"
    },
    {
      "inputs": [
        {
          "internalType": "address",
          "name": "owner",
          "type": "address"
        },
        {
          "internalType": "address",
          "name": "operator",
          "type": "address"
        }
      ],
      "name": "isApprovedForAll",
      "outputs": [
        {
          "internalType": "bool",
          "name": "",
          "type": "bool"
        }
      ],
      "stateMutability": "view",
      "type": "function"
    },
    {
      "inputs": [
        {
          "internalType": "uint256",
          "name": "",
          "type": "uint256"
        }
      ],
      "name": "landPrices",
      "outputs": [
        {
          "internalType": "uint256",
          "name": "",
          "type": "uint256"
        }
      ],
      "stateMutability": "view",
      "type": "function"
    },
    {
      "inputs": [
        {
          "internalType": "uint256",
          "name": "",
          "type": "uint256"
        }
      ],
      "name": "landToPublicCID",
      "outputs": [
        {
          "internalType": "string",
          "name": "",
          "type": "string"
        }
      ],
      "stateMutability": "view",
      "type": "function"
    },
    {
      "inputs": [
        {
          "internalType": "uint256",
          "name": "",
          "type": "uint256"
        }
      ],
      "name": "lands",
      "outputs": [
        {
          "internalType": "uint256",
          "name": "landId",
          "type": "uint256"
        },
        {
          "internalType": "enum LandRegistry.LandStatus",
          "name": "status",
          "type": "uint8"
        },
        {
          "internalType": "string",
          "name": "metadataCID",
          "type": "string"
        }
      ],
      "stateMutability": "view",
      "type": "function"
    },
    {
      "inputs": [],
      "name": "name",
      "outputs": [
        {
          "internalType": "string",
          "name": "",
          "type": "string"
        }
      ],
      "stateMutability": "view",
      "type": "function"
    },
    {
      "inputs": [],
      "name": "owner",
      "outputs": [
        {
          "internalType": "address",
          "name": "",
          "type": "address"
        }
      ],
      "stateMutability": "view",
      "type": "function"
    },
    {
      "inputs": [
        {
          "internalType": "uint256",
          "name": "tokenId",
          "type": "uint256"
        }
      ],
      "name": "ownerOf",
      "outputs": [
        {
          "internalType": "address",
          "name": "",
          "type": "address"
        }
      ],
      "stateMutability": "view",
      "type": "function"
    },
    {
      "inputs": [
        {
          "internalType": "address",
          "name": "",
          "type": "address"
        },
        {
          "internalType": "uint256",
          "name": "",
          "type": "uint256"
        }
      ],
      "name": "ownerToLandIds",
      "outputs": [
        {
          "internalType": "uint256",
          "name": "",
          "type": "uint256"
        }
      ],
      "stateMutability": "view",
      "type": "function"
    },
    {
      "inputs": [
        {
          "internalType": "uint256",
          "name": "",
          "type": "uint256"
        }
      ],
      "name": "pendingBuyer",
      "outputs": [
        {
          "internalType": "address",
          "name": "",
          "type": "address"
        }
      ],
      "stateMutability": "view",
      "type": "function"
    },
    {
      "inputs": [
        {
          "internalType": "address",
          "name": "to",
          "type": "address"
        },
        {
          "internalType": "string",
          "name": "metadataCID",
          "type": "string"
        },
        {
          "internalType": "string",
          "name": "publicCID",
          "type": "string"
        },
        {
          "internalType": "uint256",
          "name": "priceWei",
          "type": "uint256"
        }
      ],
      "name": "registerLand",
      "outputs": [],
      "stateMutability": "nonpayable",
      "type": "function"
    },
    {
      "inputs": [
        {
          "internalType": "string",
          "name": "cid",
          "type": "string"
        }
      ],
      "name": "registerUserWithCID",
      "outputs": [],
      "stateMutability": "nonpayable",
      "type": "function"
    },
    {
      "inputs": [],
      "name": "renounceOwnership",
      "outputs": [],
      "stateMutability": "nonpayable",
      "type": "function"
    },
    {
      "inputs": [
        {
          "internalType": "uint256",
          "name": "landId",
          "type": "uint256"
        }
      ],
      "name": "requestToBuy",
      "outputs": [],
      "stateMutability": "payable",
      "type": "function"
    },
    {
      "inputs": [
        {
          "internalType": "address",
          "name": "",
          "type": "address"
        }
      ],
      "name": "roles",
      "outputs": [
        {
          "internalType": "enum LandRegistry.Role",
          "name": "",
          "type": "uint8"
        }
      ],
      "stateMutability": "view",
      "type": "function"
    },
    {
      "inputs": [
        {
          "internalType": "address",
          "name": "from",
          "type": "address"
        },
        {
          "internalType": "address",
          "name": "to",
          "type": "address"
        },
        {
          "internalType": "uint256",
          "name": "tokenId",
          "type": "uint256"
        }
      ],
      "name": "safeTransferFrom",
      "outputs": [],
      "stateMutability": "nonpayable",
      "type": "function"
    },
    {
      "inputs": [
        {
          "internalType": "address",
          "name": "from",
          "type": "address"
        },
        {
          "internalType": "address",
          "name": "to",
          "type": "address"
        },
        {
          "internalType": "uint256",
          "name": "tokenId",
          "type": "uint256"
        },
        {
          "internalType": "bytes",
          "name": "data",
          "type": "bytes"
        }
      ],
      "name": "safeTransferFrom",
      "outputs": [],
      "stateMutability": "nonpayable",
      "type": "function"
    },
    {
      "inputs": [],
      "name": "selfRegisterUser",
      "outputs": [],
      "stateMutability": "nonpayable",
      "type": "function"
    },
    {
      "inputs": [
        {
          "internalType": "address",
          "name": "operator",
          "type": "address"
        },
        {
          "internalType": "bool",
          "name": "approved",
          "type": "bool"
        }
      ],
      "name": "setApprovalForAll",
      "outputs": [],
      "stateMutability": "nonpayable",
      "type": "function"
    },
    {
      "inputs": [
        {
          "internalType": "bytes4",
          "name": "interfaceId",
          "type": "bytes4"
        }
      ],
      "name": "supportsInterface",
      "outputs": [
        {
          "internalType": "bool",
          "name": "",
          "type": "bool"
        }
      ],
      "stateMutability": "view",
      "type": "function"
    },
    {
      "inputs": [],
      "name": "symbol",
      "outputs": [
        {
          "internalType": "string",
          "name": "",
          "type": "string"
        }
      ],
      "stateMutability": "view",
      "type": "function"
    },
    {
      "inputs": [
        {
          "internalType": "uint256",
          "name": "tokenId",
          "type": "uint256"
        }
      ],
      "name": "tokenURI",
      "outputs": [
        {
          "internalType": "string",
          "name": "",
          "type": "string"
        }
      ],
      "stateMutability": "view",
      "type": "function"
    },
    {
      "inputs": [
        {
          "internalType": "address",
          "name": "from",
          "type": "address"
        },
        {
          "internalType": "address",
          "name": "to",
          "type": "address"
        },
        {
          "internalType": "uint256",
          "name": "tokenId",
          "type": "uint256"
        }
      ],
      "name": "transferFrom",
      "outputs": [],
      "stateMutability": "nonpayable",
      "type": "function"
    },
    {
      "inputs": [
        {
          "internalType": "uint256",
          "name": "landId",
          "type": "uint256"
        },
        {
          "internalType": "address",
          "name": "newOwner",
          "type": "address"
        }
      ],
      "name": "transferLandOwnership",
      "outputs": [],
      "stateMutability": "nonpayable",
      "type": "function"
    },
    {
      "inputs": [
        {
          "internalType": "address",
          "name": "newOwner",
          "type": "address"
        }
      ],
      "name": "transferOwnership",
      "outputs": [],
      "stateMutability": "nonpayable",
      "type": "function"
    },
    {
      "inputs": [
        {
          "internalType": "uint256",
          "name": "landId",
          "type": "uint256"
        },
        {
          "internalType": "uint256",
          "name": "newPriceWei",
          "type": "uint256"
        }
      ],
      "name": "updateLandPrice",
      "outputs": [],
      "stateMutability": "nonpayable",
      "type": "function"
    },
    {
      "inputs": [
        {
          "internalType": "uint256",
          "name": "landId",
          "type": "uint256"
        },
        {
          "internalType": "enum LandRegistry.LandStatus",
          "name": "newStatus",
          "type": "uint8"
        }
      ],
      "name": "updateLandStatus",
      "outputs": [],
      "stateMutability": "nonpayable",
      "type": "function"
    },
    {
      "inputs": [
        {
          "internalType": "address",
          "name": "",
          "type": "address"
        }
      ],
      "name": "userMetadataCID",
      "outputs": [
        {
          "internalType": "string",
          "name": "",
          "type": "string"
        }
      ],
      "stateMutability": "view",
      "type": "function"
    }
  ],
  "bytecode": "0x6080604052600160085534801561001557600080fd5b50336040518060400160405280600781526020017f476f764c616e64000000000000000000000000000000000000000000000000008152506040518060400160405280600381526020017f4d4c4e000000000000000000000000000000000000000000000000000000000081525081600090816100929190610442565b5080600190816100a29190610442565b505050600073ffffffffffffffffffffffffffffffffffffffff168173ffffffffffffffffffffffffffffffffffffffff16036101175760006040517f1e4fbdf700000000000000000000000000000000000000000000000000000000815260040161010e9190610555565b60405180910390fd5b6101268161012c60201b60201c565b50610570565b6000600760009054906101000a900473ffffffffffffffffffffffffffffffffffffffff16905081600760006101000a81548173ffffffffffffffffffffffffffffffffffffffff021916908373ffffffffffffffffffffffffffffffffffffffff1602179055508173ffffffffffffffffffffffffffffffffffffffff168173ffffffffffffffffffffffffffffffffffffffff167f8be0079c531659141344cd1fd0a4f28419497f9722a3daafe3b4186f6b6457e060405160405180910390a35050565b600081519050919050565b7f4e487b7100000000000000000000000000000000000000000000000000000000600052604160045260246000fd5b7f4e487b7100000000000000000000000000000000000000000000000000000000600052602260045260246000fd5b6000600282049050600182168061027357607f821691505b6020821081036102865761028561022c565b5b50919050565b60008190508160005260206000209050919050565b60006020601f8301049050919050565b600082821b905092915050565b6000600883026102ee7fffffffffffffffffffffffffffffffffffffffffffffffffffffffffffffffff826102b1565b6102f886836102b1565b95508019841693508086168417925050509392505050565b6000819050919050565b6000819050919050565b600061033f61033a61033584610310565b61031a565b610310565b9050919050565b6000819050919050565b61035983610324565b61036d61036582610346565b8484546102be565b825550505050565b600090565b610382610375565b61038d818484610350565b505050565b5b818110156103b1576103a660008261037a565b600181019050610393565b5050565b601f8211156103f6576103c78161028c565b6103d0846102a1565b810160208510156103df578190505b6103f36103eb856102a1565b830182610392565b50505b505050565b600082821c905092915050565b6000610419600019846008026103fb565b1980831691505092915050565b60006104328383610408565b9150826002028217905092915050565b61044b826101f2565b67ffffffffffffffff811115610464576104636101fd565b5b61046e825461025b565b6104798282856103b5565b600060209050601f8311600181146104ac576000841561049a578287015190505b6104a48582610426565b86555061050c565b601f1984166104ba8661028c565b60005b828110156104e2578489015182556001820191506020850194506020810190506104bd565b868310156104ff57848901516104fb601f891682610408565b8355505b6001600288020188555050505b505050505050565b600073ffffffffffffffffffffffffffffffffffffffff82169050919050565b600061053f82610514565b9050919050565b61054f81610534565b82525050565b600060208201905061056a6000830184610546565b92915050565b614b1d8061057f6000396000f3fe6080604052600436106101ee5760003560e01c806370a082311161010d578063b88d4fde116100a0578063d7dee1921161006f578063d7dee19214610734578063e261f1e51461075f578063e985e9c51461079e578063f02dd53f146107db578063f2fde38b1461081a576101ee565b8063b88d4fde1461067c578063bee4918c146106a5578063c64ab4cf146106ce578063c87b56dd146106f7576101ee565b80638da5cb5b116100dc5780638da5cb5b146105c057806395d89b41146105eb5780639937464214610616578063a22cb46514610653576101ee565b806370a0823114610518578063715018a614610555578063772afef41461056c5780637bb2d6db14610583576101ee565b80634bbdda76116101855780635c7b0308116101545780635c7b0308146104455780636352211e146104615780636480a5d21461049e57806366f487ed146104db576101ee565b80634bbdda76146103655780634c33fbb7146103a2578063519ea705146103cb5780635b48d9ae14610408576101ee565b8063095ea7b3116101c1578063095ea7b3146102c1578063174a8fe7146102ea57806323b872dd1461031357806342842e0e1461033c576101ee565b806301ffc9a7146101f35780630551035e1461023057806306fdde0314610259578063081812fc14610284575b600080fd5b3480156101ff57600080fd5b5061021a600480360381019061021591906134e6565b610843565b604051610227919061352e565b60405180910390f35b34801561023c57600080fd5b5061025760048036038101906102529190613723565b6108a4565b005b34801561026557600080fd5b5061026e610b5f565b60405161027b9190613841565b60405180910390f35b34801561029057600080fd5b506102ab60048036038101906102a69190613863565b610bf1565b6040516102b8919061389f565b60405180910390f35b3480156102cd57600080fd5b506102e860048036038101906102e391906138ba565b610c0d565b005b3480156102f657600080fd5b50610311600480360381019061030c919061391f565b610c23565b005b34801561031f57600080fd5b5061033a6004803603810190610335919061395f565b610e0e565b005b34801561034857600080fd5b50610363600480360381019061035e919061395f565b610f10565b005b34801561037157600080fd5b5061038c60048036038101906103879190613863565b610f30565b6040516103999190613841565b60405180910390f35b3480156103ae57600080fd5b506103c960048036038101906103c491906139b2565b610fd0565b005b3480156103d757600080fd5b506103f260048036038101906103ed91906139f2565b611195565b6040516103ff9190613add565b60405180910390f35b34801561041457600080fd5b5061042f600480360381019061042a91906139f2565b61122c565b60405161043c9190613841565b60405180910390f35b61045f600480360381019061045a9190613863565b6112cc565b005b34801561046d57600080fd5b5061048860048036038101906104839190613863565b61156f565b604051610495919061389f565b60405180910390f35b3480156104aa57600080fd5b506104c560048036038101906104c09190613863565b611581565b6040516104d2919061389f565b60405180910390f35b3480156104e757600080fd5b5061050260048036038101906104fd91906138ba565b6115b4565b60405161050f9190613b0e565b60405180910390f35b34801561052457600080fd5b5061053f600480360381019061053a91906139f2565b6115e5565b60405161054c9190613b0e565b60405180910390f35b34801561056157600080fd5b5061056a61169f565b005b34801561057857600080fd5b506105816116b3565b005b34801561058f57600080fd5b506105aa60048036038101906105a59190613863565b61181c565b6040516105b79190613b0e565b60405180910390f35b3480156105cc57600080fd5b506105d5611834565b6040516105e2919061389f565b60405180910390f35b3480156105f757600080fd5b5061060061185e565b60405161060d9190613841565b60405180910390f35b34801561062257600080fd5b5061063d600480360381019061063891906139f2565b6118f0565b60405161064a9190613ba0565b60405180910390f35b34801561065f57600080fd5b5061067a60048036038101906106759190613be7565b611910565b005b34801561068857600080fd5b506106a3600480360381019061069e9190613cc8565b611926565b005b3480156106b157600080fd5b506106cc60048036038101906106c79190613d4b565b61194b565b005b3480156106da57600080fd5b506106f560048036038101906106f09190613d94565b611b04565b005b34801561070357600080fd5b5061071e60048036038101906107199190613863565b611edb565b60405161072b9190613841565b60405180910390f35b34801561074057600080fd5b50610749611f61565b6040516107569190613add565b60405180910390f35b34801561076b57600080fd5b5061078660048036038101906107819190613863565b612010565b60405161079593929190613e1c565b60405180910390f35b3480156107aa57600080fd5b506107c560048036038101906107c09190613e5a565b6120cf565b6040516107d2919061352e565b60405180910390f35b3480156107e757600080fd5b5061080260048036038101906107fd9190613863565b612163565b60405161081193929190613f43565b60405180910390f35b34801561082657600080fd5b50610841600480360381019061083c91906139f2565b6122ce565b005b6000634906490660e01b7bffffffffffffffffffffffffffffffffffffffffffffffffffffffff1916827bffffffffffffffffffffffffffffffffffffffffffffffffffffffff1916148061089d575061089c82612354565b5b9050919050565b600160028111156108b8576108b7613b29565b5b600a60003373ffffffffffffffffffffffffffffffffffffffff1673ffffffffffffffffffffffffffffffffffffffff16815260200190815260200160002060009054906101000a900460ff16600281111561091757610916613b29565b5b14610957576040517f08c379a000000000000000000000000000000000000000000000000000000000815260040161094e90613fd4565b60405180910390fd5b60006008600081548092919061096c90614023565b91905055905061097c8582612436565b6040518060600160405280828152602001600160048111156109a1576109a0613b29565b5b815260200185815250600b60008381526020019081526020016000206000820151816000015560208201518160010160006101000a81548160ff021916908360048111156109f2576109f1613b29565b5b02179055506040820151816002019081610a0c9190614277565b50905050600c60008673ffffffffffffffffffffffffffffffffffffffff1673ffffffffffffffffffffffffffffffffffffffff168152602001908152602001600020819080600181540180825580915050600190039060005260206000200160009091909190915055610a808184612454565b8473ffffffffffffffffffffffffffffffffffffffff16817f9c4ad74928fec1ee86181680df0e76bf575b79ea2a0347f7ed270884bdd26ad786604051610ac79190613841565b60405180910390a381600e600083815260200190815260200160002081905550807f6d63dff809eaa3125b19b928b3955c261658ff6781148e3d3e6a939b7bee2ba96001604051610b189190614349565b60405180910390a2807f2f9b23898410304c2b8c29547330c8ef08ad5f7c80b5204df939744931e2752083604051610b509190613b0e565b60405180910390a25050505050565b606060008054610b6e9061409a565b80601f0160208091040260200160405190810160405280929190818152602001828054610b9a9061409a565b8015610be75780601f10610bbc57610100808354040283529160200191610be7565b820191906000526020600020905b815481529060010190602001808311610bca57829003601f168201915b5050505050905090565b6000610bfc82612479565b50610c0682612501565b9050919050565b610c1f8282610c1a61253e565b612546565b5050565b60016002811115610c3757610c36613b29565b5b600a60003373ffffffffffffffffffffffffffffffffffffffff1673ffffffffffffffffffffffffffffffffffffffff16815260200190815260200160002060009054906101000a900460ff166002811115610c9657610c95613b29565b5b14610cd6576040517f08c379a0000000000000000000000000000000000000000000000000000000008152600401610ccd90613fd4565b60405180910390fd5b610cdf82612558565b610d1e576040517f08c379a0000000000000000000000000000000000000000000000000000000008152600401610d15906143b0565b60405180910390fd5b3373ffffffffffffffffffffffffffffffffffffffff16610d3e8361156f565b73ffffffffffffffffffffffffffffffffffffffff1614610d94576040517f08c379a0000000000000000000000000000000000000000000000000000000008152600401610d8b9061441c565b60405180910390fd5b80600b600084815260200190815260200160002060010160006101000a81548160ff02191690836004811115610dcd57610dcc613b29565b5b0217905550817f6d63dff809eaa3125b19b928b3955c261658ff6781148e3d3e6a939b7bee2ba982604051610e029190614349565b60405180910390a25050565b600073ffffffffffffffffffffffffffffffffffffffff168273ffffffffffffffffffffffffffffffffffffffff1603610e805760006040517f64a0ae92000000000000000000000000000000000000000000000000000000008152600401610e77919061389f565b60405180910390fd5b6000610e948383610e8f61253e565b612599565b90508373ffffffffffffffffffffffffffffffffffffffff168173ffffffffffffffffffffffffffffffffffffffff1614610f0a578382826040517f64283d7b000000000000000000000000000000000000000000000000000000008152600401610f019392919061443c565b60405180910390fd5b50505050565b610f2b83838360405180602001604052806000815250611926565b505050565b600d6020528060005260406000206000915090508054610f4f9061409a565b80601f0160208091040260200160405190810160405280929190818152602001828054610f7b9061409a565b8015610fc85780601f10610f9d57610100808354040283529160200191610fc8565b820191906000526020600020905b815481529060010190602001808311610fab57829003601f168201915b505050505081565b60016002811115610fe457610fe3613b29565b5b600a60003373ffffffffffffffffffffffffffffffffffffffff1673ffffffffffffffffffffffffffffffffffffffff16815260200190815260200160002060009054906101000a900460ff16600281111561104357611042613b29565b5b14611083576040517f08c379a000000000000000000000000000000000000000000000000000000000815260040161107a90613fd4565b60405180910390fd5b61108c82612558565b6110cb576040517f08c379a00000000000000000000000000000000000000000000000000000000081526004016110c2906144bf565b60405180910390fd5b3373ffffffffffffffffffffffffffffffffffffffff166110eb8361156f565b73ffffffffffffffffffffffffffffffffffffffff1614611141576040517f08c379a00000000000000000000000000000000000000000000000000000000081526004016111389061452b565b60405180910390fd5b80600e600084815260200190815260200160002081905550817f2f9b23898410304c2b8c29547330c8ef08ad5f7c80b5204df939744931e27520826040516111899190613b0e565b60405180910390a25050565b6060600c60008373ffffffffffffffffffffffffffffffffffffffff1673ffffffffffffffffffffffffffffffffffffffff16815260200190815260200160002080548060200260200160405190810160405280929190818152602001828054801561122057602002820191906000526020600020905b81548152602001906001019080831161120c575b50505050509050919050565b6009602052806000526040600020600091509050805461124b9061409a565b80601f01602080910402602001604051908101604052809291908181526020018280546112779061409a565b80156112c45780601f10611299576101008083540402835291602001916112c4565b820191906000526020600020905b8154815290600101906020018083116112a757829003601f168201915b505050505081565b600160028111156112e0576112df613b29565b5b600a60003373ffffffffffffffffffffffffffffffffffffffff1673ffffffffffffffffffffffffffffffffffffffff16815260200190815260200160002060009054906101000a900460ff16600281111561133f5761133e613b29565b5b1461137f576040517f08c379a000000000000000000000000000000000000000000000000000000000815260040161137690613fd4565b60405180910390fd5b6001600481111561139357611392613b29565b5b600b600083815260200190815260200160002060010160009054906101000a900460ff1660048111156113c9576113c8613b29565b5b14611409576040517f08c379a000000000000000000000000000000000000000000000000000000000815260040161140090614597565b60405180910390fd5b600e600082815260200190815260200160002054341461145e576040517f08c379a000000000000000000000000000000000000000000000000000000000815260040161145590614603565b60405180910390fd5b33600f600083815260200190815260200160002060006101000a81548173ffffffffffffffffffffffffffffffffffffffff021916908373ffffffffffffffffffffffffffffffffffffffff1602179055506002600b600083815260200190815260200160002060010160006101000a81548160ff021916908360048111156114ea576114e9613b29565b5b0217905550807f6d63dff809eaa3125b19b928b3955c261658ff6781148e3d3e6a939b7bee2ba960026040516115209190614349565b60405180910390a23373ffffffffffffffffffffffffffffffffffffffff16817fc09888d0d13bc8be6e776deb914e6e8696b8167f87668e53dc967dd7ebb8a50060405160405180910390a350565b600061157a82612479565b9050919050565b600f6020528060005260406000206000915054906101000a900473ffffffffffffffffffffffffffffffffffffffff1681565b600c60205281600052604060002081815481106115d057600080fd5b90600052602060002001600091509150505481565b60008073ffffffffffffffffffffffffffffffffffffffff168273ffffffffffffffffffffffffffffffffffffffff16036116585760006040517f89c62b6400000000000000000000000000000000000000000000000000000000815260040161164f919061389f565b60405180910390fd5b600360008373ffffffffffffffffffffffffffffffffffffffff1673ffffffffffffffffffffffffffffffffffffffff168152602001908152602001600020549050919050565b6116a76127b3565b6116b1600061283a565b565b600060028111156116c7576116c6613b29565b5b600a60003373ffffffffffffffffffffffffffffffffffffffff1673ffffffffffffffffffffffffffffffffffffffff16815260200190815260200160002060009054906101000a900460ff16600281111561172657611725613b29565b5b14611766576040517f08c379a000000000000000000000000000000000000000000000000000000000815260040161175d9061466f565b60405180910390fd5b6001600a60003373ffffffffffffffffffffffffffffffffffffffff1673ffffffffffffffffffffffffffffffffffffffff16815260200190815260200160002060006101000a81548160ff021916908360028111156117c9576117c8613b29565b5b02179055503373ffffffffffffffffffffffffffffffffffffffff167f48cac28ad4dc618e15f4c2dd5e97751182f166de97b25618318b2112aa951a2f604051611812906146b5565b60405180910390a2565b600e6020528060005260406000206000915090505481565b6000600760009054906101000a900473ffffffffffffffffffffffffffffffffffffffff16905090565b60606001805461186d9061409a565b80601f01602080910402602001604051908101604052809291908181526020018280546118999061409a565b80156118e65780601f106118bb576101008083540402835291602001916118e6565b820191906000526020600020905b8154815290600101906020018083116118c957829003601f168201915b5050505050905090565b600a6020528060005260406000206000915054906101000a900460ff1681565b61192261191b61253e565b8383612900565b5050565b611931848484610e0e565b61194561193c61253e565b85858585612a6f565b50505050565b6000600281111561195f5761195e613b29565b5b600a60003373ffffffffffffffffffffffffffffffffffffffff1673ffffffffffffffffffffffffffffffffffffffff16815260200190815260200160002060009054906101000a900460ff1660028111156119be576119bd613b29565b5b146119fe576040517f08c379a00000000000000000000000000000000000000000000000000000000081526004016119f59061466f565b60405180910390fd5b6001600a60003373ffffffffffffffffffffffffffffffffffffffff1673ffffffffffffffffffffffffffffffffffffffff16815260200190815260200160002060006101000a81548160ff02191690836002811115611a6157611a60613b29565b5b021790555080600960003373ffffffffffffffffffffffffffffffffffffffff1673ffffffffffffffffffffffffffffffffffffffff1681526020019081526020016000209081611ab29190614277565b503373ffffffffffffffffffffffffffffffffffffffff167f48cac28ad4dc618e15f4c2dd5e97751182f166de97b25618318b2112aa951a2f82604051611af99190613841565b60405180910390a250565b60016002811115611b1857611b17613b29565b5b600a60003373ffffffffffffffffffffffffffffffffffffffff1673ffffffffffffffffffffffffffffffffffffffff16815260200190815260200160002060009054906101000a900460ff166002811115611b7757611b76613b29565b5b14611bb7576040517f08c379a0000000000000000000000000000000000000000000000000000000008152600401611bae90613fd4565b60405180910390fd5b6000611bc28361156f565b90503373ffffffffffffffffffffffffffffffffffffffff168173ffffffffffffffffffffffffffffffffffffffff1614611c32576040517f08c379a0000000000000000000000000000000000000000000000000000000008152600401611c2990614721565b60405180910390fd5b8173ffffffffffffffffffffffffffffffffffffffff16600f600085815260200190815260200160002060009054906101000a900473ffffffffffffffffffffffffffffffffffffffff1673ffffffffffffffffffffffffffffffffffffffff1614611cd3576040517f08c379a0000000000000000000000000000000000000000000000000000000008152600401611cca9061478d565b60405180910390fd5b611cdd8184612c20565b600c60008373ffffffffffffffffffffffffffffffffffffffff1673ffffffffffffffffffffffffffffffffffffffff168152602001908152602001600020839080600181540180825580915050600190039060005260206000200160009091909190915055611d4e818385612d27565b6003600b600085815260200190815260200160002060010160006101000a81548160ff02191690836004811115611d8857611d87613b29565b5b0217905550827f6d63dff809eaa3125b19b928b3955c261658ff6781148e3d3e6a939b7bee2ba96003604051611dbe9190614349565b60405180910390a26000600e60008581526020019081526020016000205490506000600f600086815260200190815260200160002060006101000a81548173ffffffffffffffffffffffffffffffffffffffff021916908373ffffffffffffffffffffffffffffffffffffffff1602179055506000600e6000868152602001908152602001600020819055508173ffffffffffffffffffffffffffffffffffffffff166108fc829081150290604051600060405180830381858888f19350505050158015611e90573d6000803e3d6000fd5b508273ffffffffffffffffffffffffffffffffffffffff16847f5e569b537d45304a15b956ec8cb2aaa2dfcff5385fdb4828e7c914a388e805cf60405160405180910390a350505050565b6060611ee682612558565b611f25576040517f08c379a0000000000000000000000000000000000000000000000000000000008152600401611f1c906147f9565b60405180910390fd5b600b6000838152602001908152602001600020600201604051602001611f4b91906148f3565b6040516020818303038152906040529050919050565b606060006001600854611f749190614915565b905060008167ffffffffffffffff811115611f9257611f916135c2565b5b604051908082528060200260200182016040528015611fc05781602001602082028036833780820191505090505b50905060005b8281101561200757600181611fdb9190614949565b828281518110611fee57611fed61497d565b5b6020026020010181815250508080600101915050611fc6565b50809250505090565b600b6020528060005260406000206000915090508060000154908060010160009054906101000a900460ff169080600201805461204c9061409a565b80601f01602080910402602001604051908101604052809291908181526020018280546120789061409a565b80156120c55780601f1061209a576101008083540402835291602001916120c5565b820191906000526020600020905b8154815290600101906020018083116120a857829003601f168201915b5050505050905083565b6000600560008473ffffffffffffffffffffffffffffffffffffffff1673ffffffffffffffffffffffffffffffffffffffff16815260200190815260200160002060008373ffffffffffffffffffffffffffffffffffffffff1673ffffffffffffffffffffffffffffffffffffffff16815260200190815260200160002060009054906101000a900460ff16905092915050565b61216b613447565b6000606061217884612558565b6121b7576040517f08c379a00000000000000000000000000000000000000000000000000000000081526004016121ae906144bf565b60405180910390fd5b600b60008581526020019081526020016000206121d38561156f565b6121dc86612e94565b82604051806060016040529081600082015481526020016001820160009054906101000a900460ff16600481111561221757612216613b29565b5b600481111561222957612228613b29565b5b815260200160028201805461223d9061409a565b80601f01602080910402602001604051908101604052809291908181526020018280546122699061409a565b80156122b65780601f1061228b576101008083540402835291602001916122b6565b820191906000526020600020905b81548152906001019060200180831161229957829003601f168201915b50505050508152505092509250925092509193909250565b6122d66127b3565b600073ffffffffffffffffffffffffffffffffffffffff168173ffffffffffffffffffffffffffffffffffffffff16036123485760006040517f1e4fbdf700000000000000000000000000000000000000000000000000000000815260040161233f919061389f565b60405180910390fd5b6123518161283a565b50565b60007f80ac58cd000000000000000000000000000000000000000000000000000000007bffffffffffffffffffffffffffffffffffffffffffffffffffffffff1916827bffffffffffffffffffffffffffffffffffffffffffffffffffffffff1916148061241f57507f5b5e139f000000000000000000000000000000000000000000000000000000007bffffffffffffffffffffffffffffffffffffffffffffffffffffffff1916827bffffffffffffffffffffffffffffffffffffffffffffffffffffffff1916145b8061242f575061242e82612f39565b5b9050919050565b612450828260405180602001604052806000815250612fa3565b5050565b80600d600084815260200190815260200160002090816124749190614277565b505050565b60008061248583612fc7565b9050600073ffffffffffffffffffffffffffffffffffffffff168173ffffffffffffffffffffffffffffffffffffffff16036124f857826040517f7e2732890000000000000000000000000000000000000000000000000000000081526004016124ef9190613b0e565b60405180910390fd5b80915050919050565b60006004600083815260200190815260200160002060009054906101000a900473ffffffffffffffffffffffffffffffffffffffff169050919050565b600033905090565b6125538383836001613004565b505050565b60008073ffffffffffffffffffffffffffffffffffffffff1661257a83612fc7565b73ffffffffffffffffffffffffffffffffffffffff1614159050919050565b6000806125a584612fc7565b9050600073ffffffffffffffffffffffffffffffffffffffff168373ffffffffffffffffffffffffffffffffffffffff16146125e7576125e68184866131c9565b5b600073ffffffffffffffffffffffffffffffffffffffff168173ffffffffffffffffffffffffffffffffffffffff161461267857612629600085600080613004565b6001600360008373ffffffffffffffffffffffffffffffffffffffff1673ffffffffffffffffffffffffffffffffffffffff168152602001908152602001600020600082825403925050819055505b600073ffffffffffffffffffffffffffffffffffffffff168573ffffffffffffffffffffffffffffffffffffffff16146126fb576001600360008773ffffffffffffffffffffffffffffffffffffffff1673ffffffffffffffffffffffffffffffffffffffff168152602001908152602001600020600082825401925050819055505b846002600086815260200190815260200160002060006101000a81548173ffffffffffffffffffffffffffffffffffffffff021916908373ffffffffffffffffffffffffffffffffffffffff160217905550838573ffffffffffffffffffffffffffffffffffffffff168273ffffffffffffffffffffffffffffffffffffffff167fddf252ad1be2c89b69c2b068fc378daa952ba7f163c4a11628f55a4df523b3ef60405160405180910390a4809150509392505050565b6127bb61253e565b73ffffffffffffffffffffffffffffffffffffffff166127d9611834565b73ffffffffffffffffffffffffffffffffffffffff1614612838576127fc61253e565b6040517f118cdaa700000000000000000000000000000000000000000000000000000000815260040161282f919061389f565b60405180910390fd5b565b6000600760009054906101000a900473ffffffffffffffffffffffffffffffffffffffff16905081600760006101000a81548173ffffffffffffffffffffffffffffffffffffffff021916908373ffffffffffffffffffffffffffffffffffffffff1602179055508173ffffffffffffffffffffffffffffffffffffffff168173ffffffffffffffffffffffffffffffffffffffff167f8be0079c531659141344cd1fd0a4f28419497f9722a3daafe3b4186f6b6457e060405160405180910390a35050565b600073ffffffffffffffffffffffffffffffffffffffff168273ffffffffffffffffffffffffffffffffffffffff160361297157816040517f5b08ba18000000000000000000000000000000000000000000000000000000008152600401612968919061389f565b60405180910390fd5b80600560008573ffffffffffffffffffffffffffffffffffffffff1673ffffffffffffffffffffffffffffffffffffffff16815260200190815260200160002060008473ffffffffffffffffffffffffffffffffffffffff1673ffffffffffffffffffffffffffffffffffffffff16815260200190815260200160002060006101000a81548160ff0219169083151502179055508173ffffffffffffffffffffffffffffffffffffffff168373ffffffffffffffffffffffffffffffffffffffff167f17307eab39ab6107e8899845ad3d59bd9653f200f220920489ca2b5937696c3183604051612a62919061352e565b60405180910390a3505050565b60008373ffffffffffffffffffffffffffffffffffffffff163b1115612c19578273ffffffffffffffffffffffffffffffffffffffff1663150b7a02868685856040518563ffffffff1660e01b8152600401612ace9493929190614a01565b6020604051808303816000875af1925050508015612b0a57506040513d601f19601f82011682018060405250810190612b079190614a62565b60015b612b8e573d8060008114612b3a576040519150601f19603f3d011682016040523d82523d6000602084013e612b3f565b606091505b506000815103612b8657836040517f64a0ae92000000000000000000000000000000000000000000000000000000008152600401612b7d919061389f565b60405180910390fd5b805181602001fd5b63150b7a0260e01b7bffffffffffffffffffffffffffffffffffffffffffffffffffffffff1916817bffffffffffffffffffffffffffffffffffffffffffffffffffffffff191614612c1757836040517f64a0ae92000000000000000000000000000000000000000000000000000000008152600401612c0e919061389f565b60405180910390fd5b505b5050505050565b6000600c60008473ffffffffffffffffffffffffffffffffffffffff1673ffffffffffffffffffffffffffffffffffffffff168152602001908152602001600020905060005b8180549050811015612d205782828281548110612c8657612c8561497d565b5b906000526020600020015403612d13578160018380549050612ca89190614915565b81548110612cb957612cb861497d565b5b9060005260206000200154828281548110612cd757612cd661497d565b5b906000526020600020018190555081805480612cf657612cf5614a8f565b5b600190038181906000526020600020016000905590555050612d23565b8080600101915050612c66565b50505b5050565b600073ffffffffffffffffffffffffffffffffffffffff168273ffffffffffffffffffffffffffffffffffffffff1603612d995760006040517f64a0ae92000000000000000000000000000000000000000000000000000000008152600401612d90919061389f565b60405180910390fd5b6000612da783836000612599565b9050600073ffffffffffffffffffffffffffffffffffffffff168173ffffffffffffffffffffffffffffffffffffffff1603612e1a57816040517f7e273289000000000000000000000000000000000000000000000000000000008152600401612e119190613b0e565b60405180910390fd5b8373ffffffffffffffffffffffffffffffffffffffff168173ffffffffffffffffffffffffffffffffffffffff1614612e8e578382826040517f64283d7b000000000000000000000000000000000000000000000000000000008152600401612e859392919061443c565b60405180910390fd5b50505050565b6060600d60008381526020019081526020016000208054612eb49061409a565b80601f0160208091040260200160405190810160405280929190818152602001828054612ee09061409a565b8015612f2d5780601f10612f0257610100808354040283529160200191612f2d565b820191906000526020600020905b815481529060010190602001808311612f1057829003601f168201915b50505050509050919050565b60007f01ffc9a7000000000000000000000000000000000000000000000000000000007bffffffffffffffffffffffffffffffffffffffffffffffffffffffff1916827bffffffffffffffffffffffffffffffffffffffffffffffffffffffff1916149050919050565b612fad838361328d565b612fc2612fb861253e565b6000858585612a6f565b505050565b60006002600083815260200190815260200160002060009054906101000a900473ffffffffffffffffffffffffffffffffffffffff169050919050565b808061303d5750600073ffffffffffffffffffffffffffffffffffffffff168273ffffffffffffffffffffffffffffffffffffffff1614155b1561317157600061304d84612479565b9050600073ffffffffffffffffffffffffffffffffffffffff168373ffffffffffffffffffffffffffffffffffffffff16141580156130b857508273ffffffffffffffffffffffffffffffffffffffff168173ffffffffffffffffffffffffffffffffffffffff1614155b80156130cb57506130c981846120cf565b155b1561310d57826040517fa9fbf51f000000000000000000000000000000000000000000000000000000008152600401613104919061389f565b60405180910390fd5b811561316f57838573ffffffffffffffffffffffffffffffffffffffff168273ffffffffffffffffffffffffffffffffffffffff167f8c5be1e5ebec7d5bd14f71427d1e84f3dd0314c0f7b2291e5b200ac8c7c3b92560405160405180910390a45b505b836004600085815260200190815260200160002060006101000a81548173ffffffffffffffffffffffffffffffffffffffff021916908373ffffffffffffffffffffffffffffffffffffffff16021790555050505050565b6131d4838383613386565b61328857600073ffffffffffffffffffffffffffffffffffffffff168373ffffffffffffffffffffffffffffffffffffffff160361324957806040517f7e2732890000000000000000000000000000000000000000000000000000000081526004016132409190613b0e565b60405180910390fd5b81816040517f177e802f00000000000000000000000000000000000000000000000000000000815260040161327f929190614abe565b60405180910390fd5b505050565b600073ffffffffffffffffffffffffffffffffffffffff168273ffffffffffffffffffffffffffffffffffffffff16036132ff5760006040517f64a0ae920000000000000000000000000000000000000000000000000000000081526004016132f6919061389f565b60405180910390fd5b600061330d83836000612599565b9050600073ffffffffffffffffffffffffffffffffffffffff168173ffffffffffffffffffffffffffffffffffffffff16146133815760006040517f73c6ac6e000000000000000000000000000000000000000000000000000000008152600401613378919061389f565b60405180910390fd5b505050565b60008073ffffffffffffffffffffffffffffffffffffffff168373ffffffffffffffffffffffffffffffffffffffff161415801561343e57508273ffffffffffffffffffffffffffffffffffffffff168473ffffffffffffffffffffffffffffffffffffffff1614806133ff57506133fe84846120cf565b5b8061343d57508273ffffffffffffffffffffffffffffffffffffffff1661342583612501565b73ffffffffffffffffffffffffffffffffffffffff16145b5b90509392505050565b6040518060600160405280600081526020016000600481111561346d5761346c613b29565b5b8152602001606081525090565b6000604051905090565b600080fd5b600080fd5b60007fffffffff0000000000000000000000000000000000000000000000000000000082169050919050565b6134c38161348e565b81146134ce57600080fd5b50565b6000813590506134e0816134ba565b92915050565b6000602082840312156134fc576134fb613484565b5b600061350a848285016134d1565b91505092915050565b60008115159050919050565b61352881613513565b82525050565b6000602082019050613543600083018461351f565b92915050565b600073ffffffffffffffffffffffffffffffffffffffff82169050919050565b600061357482613549565b9050919050565b61358481613569565b811461358f57600080fd5b50565b6000813590506135a18161357b565b92915050565b600080fd5b600080fd5b6000601f19601f8301169050919050565b7f4e487b7100000000000000000000000000000000000000000000000000000000600052604160045260246000fd5b6135fa826135b1565b810181811067ffffffffffffffff82111715613619576136186135c2565b5b80604052505050565b600061362c61347a565b905061363882826135f1565b919050565b600067ffffffffffffffff821115613658576136576135c2565b5b613661826135b1565b9050602081019050919050565b82818337600083830152505050565b600061369061368b8461363d565b613622565b9050828152602081018484840111156136ac576136ab6135ac565b5b6136b784828561366e565b509392505050565b600082601f8301126136d4576136d36135a7565b5b81356136e484826020860161367d565b91505092915050565b6000819050919050565b613700816136ed565b811461370b57600080fd5b50565b60008135905061371d816136f7565b92915050565b6000806000806080858703121561373d5761373c613484565b5b600061374b87828801613592565b945050602085013567ffffffffffffffff81111561376c5761376b613489565b5b613778878288016136bf565b935050604085013567ffffffffffffffff81111561379957613798613489565b5b6137a5878288016136bf565b92505060606137b68782880161370e565b91505092959194509250565b600081519050919050565b600082825260208201905092915050565b60005b838110156137fc5780820151818401526020810190506137e1565b60008484015250505050565b6000613813826137c2565b61381d81856137cd565b935061382d8185602086016137de565b613836816135b1565b840191505092915050565b6000602082019050818103600083015261385b8184613808565b905092915050565b60006020828403121561387957613878613484565b5b60006138878482850161370e565b91505092915050565b61389981613569565b82525050565b60006020820190506138b46000830184613890565b92915050565b600080604083850312156138d1576138d0613484565b5b60006138df85828601613592565b92505060206138f08582860161370e565b9150509250929050565b6005811061390757600080fd5b50565b600081359050613919816138fa565b92915050565b6000806040838503121561393657613935613484565b5b60006139448582860161370e565b92505060206139558582860161390a565b9150509250929050565b60008060006060848603121561397857613977613484565b5b600061398686828701613592565b935050602061399786828701613592565b92505060406139a88682870161370e565b9150509250925092565b600080604083850312156139c9576139c8613484565b5b60006139d78582860161370e565b92505060206139e88582860161370e565b9150509250929050565b600060208284031215613a0857613a07613484565b5b6000613a1684828501613592565b91505092915050565b600081519050919050565b600082825260208201905092915050565b6000819050602082019050919050565b613a54816136ed565b82525050565b6000613a668383613a4b565b60208301905092915050565b6000602082019050919050565b6000613a8a82613a1f565b613a948185613a2a565b9350613a9f83613a3b565b8060005b83811015613ad0578151613ab78882613a5a565b9750613ac283613a72565b925050600181019050613aa3565b5085935050505092915050565b60006020820190508181036000830152613af78184613a7f565b905092915050565b613b08816136ed565b82525050565b6000602082019050613b236000830184613aff565b92915050565b7f4e487b7100000000000000000000000000000000000000000000000000000000600052602160045260246000fd5b60038110613b6957613b68613b29565b5b50565b6000819050613b7a82613b58565b919050565b6000613b8a82613b6c565b9050919050565b613b9a81613b7f565b82525050565b6000602082019050613bb56000830184613b91565b92915050565b613bc481613513565b8114613bcf57600080fd5b50565b600081359050613be181613bbb565b92915050565b60008060408385031215613bfe57613bfd613484565b5b6000613c0c85828601613592565b9250506020613c1d85828601613bd2565b9150509250929050565b600067ffffffffffffffff821115613c4257613c416135c2565b5b613c4b826135b1565b9050602081019050919050565b6000613c6b613c6684613c27565b613622565b905082815260208101848484011115613c8757613c866135ac565b5b613c9284828561366e565b509392505050565b600082601f830112613caf57613cae6135a7565b5b8135613cbf848260208601613c58565b91505092915050565b60008060008060808587031215613ce257613ce1613484565b5b6000613cf087828801613592565b9450506020613d0187828801613592565b9350506040613d128782880161370e565b925050606085013567ffffffffffffffff811115613d3357613d32613489565b5b613d3f87828801613c9a565b91505092959194509250565b600060208284031215613d6157613d60613484565b5b600082013567ffffffffffffffff811115613d7f57613d7e613489565b5b613d8b848285016136bf565b91505092915050565b60008060408385031215613dab57613daa613484565b5b6000613db98582860161370e565b9250506020613dca85828601613592565b9150509250929050565b60058110613de557613de4613b29565b5b50565b6000819050613df682613dd4565b919050565b6000613e0682613de8565b9050919050565b613e1681613dfb565b82525050565b6000606082019050613e316000830186613aff565b613e3e6020830185613e0d565b8181036040830152613e508184613808565b9050949350505050565b60008060408385031215613e7157613e70613484565b5b6000613e7f85828601613592565b9250506020613e9085828601613592565b9150509250929050565b613ea381613dfb565b82525050565b600082825260208201905092915050565b6000613ec5826137c2565b613ecf8185613ea9565b9350613edf8185602086016137de565b613ee8816135b1565b840191505092915050565b6000606083016000830151613f0b6000860182613a4b565b506020830151613f1e6020860182613e9a565b5060408301518482036040860152613f368282613eba565b9150508091505092915050565b60006060820190508181036000830152613f5d8186613ef3565b9050613f6c6020830185613890565b8181036040830152613f7e8184613808565b9050949350505050565b7f4f6e6c792072656769737465726564207573657273207065726d697474656400600082015250565b6000613fbe601f836137cd565b9150613fc982613f88565b602082019050919050565b60006020820190508181036000830152613fed81613fb1565b9050919050565b7f4e487b7100000000000000000000000000000000000000000000000000000000600052601160045260246000fd5b600061402e826136ed565b91507fffffffffffffffffffffffffffffffffffffffffffffffffffffffffffffffff82036140605761405f613ff4565b5b600182019050919050565b7f4e487b7100000000000000000000000000000000000000000000000000000000600052602260045260246000fd5b600060028204905060018216806140b257607f821691505b6020821081036140c5576140c461406b565b5b50919050565b60008190508160005260206000209050919050565b60006020601f8301049050919050565b600082821b905092915050565b60006008830261412d7fffffffffffffffffffffffffffffffffffffffffffffffffffffffffffffffff826140f0565b61413786836140f0565b95508019841693508086168417925050509392505050565b6000819050919050565b600061417461416f61416a846136ed565b61414f565b6136ed565b9050919050565b6000819050919050565b61418e83614159565b6141a261419a8261417b565b8484546140fd565b825550505050565b600090565b6141b76141aa565b6141c2818484614185565b505050565b5b818110156141e6576141db6000826141af565b6001810190506141c8565b5050565b601f82111561422b576141fc816140cb565b614205846140e0565b81016020851015614214578190505b614228614220856140e0565b8301826141c7565b50505b505050565b600082821c905092915050565b600061424e60001984600802614230565b1980831691505092915050565b6000614267838361423d565b9150826002028217905092915050565b614280826137c2565b67ffffffffffffffff811115614299576142986135c2565b5b6142a3825461409a565b6142ae8282856141ea565b600060209050601f8311600181146142e157600084156142cf578287015190505b6142d9858261425b565b865550614341565b601f1984166142ef866140cb565b60005b82811015614317578489015182556001820191506020850194506020810190506142f2565b868310156143345784890151614330601f89168261423d565b8355505b6001600288020188555050505b505050505050565b600060208201905061435e6000830184613e0d565b92915050565b7f4c616e64206e6f7420666f756e64000000000000000000000000000000000000600082015250565b600061439a600e836137cd565b91506143a582614364565b602082019050919050565b600060208201905081810360008301526143c98161438d565b9050919050565b7f4f6e6c79206f776e65722063616e207570646174652073746174757300000000600082015250565b6000614406601c836137cd565b9150614411826143d0565b602082019050919050565b60006020820190508181036000830152614435816143f9565b9050919050565b60006060820190506144516000830186613890565b61445e6020830185613aff565b61446b6040830184613890565b949350505050565b7f4c616e6420646f6573206e6f7420657869737400000000000000000000000000600082015250565b60006144a96013836137cd565b91506144b482614473565b602082019050919050565b600060208201905081810360008301526144d88161449c565b9050919050565b7f4f6e6c79206c616e64206f776e65722063616e20757064617465207072696365600082015250565b60006145156020836137cd565b9150614520826144df565b602082019050919050565b6000602082019050818103600083015261454481614508565b9050919050565b7f4c616e64206e6f7420666f722073616c65000000000000000000000000000000600082015250565b60006145816011836137cd565b915061458c8261454b565b602082019050919050565b600060208201905081810360008301526145b081614574565b9050919050565b7f496e636f7272656374207061796d656e7420616d6f756e740000000000000000600082015250565b60006145ed6018836137cd565b91506145f8826145b7565b602082019050919050565b6000602082019050818103600083015261461c816145e0565b9050919050565b7f416c726561647920726567697374657265640000000000000000000000000000600082015250565b60006146596012836137cd565b915061466482614623565b602082019050919050565b600060208201905081810360008301526146888161464c565b9050919050565b50565b600061469f6000836137cd565b91506146aa8261468f565b600082019050919050565b600060208201905081810360008301526146ce81614692565b9050919050565b7f4f6e6c79206f776e65722063616e20617070726f7665207472616e7366657200600082015250565b600061470b601f836137cd565b9150614716826146d5565b602082019050919050565b6000602082019050818103600083015261473a816146fe565b9050919050565b7f4275796572206d69736d61746368000000000000000000000000000000000000600082015250565b6000614777600e836137cd565b915061478282614741565b602082019050919050565b600060208201905081810360008301526147a68161476a565b9050919050565b7f546f6b656e20646f6573206e6f74206578697374000000000000000000000000600082015250565b60006147e36014836137cd565b91506147ee826147ad565b602082019050919050565b60006020820190508181036000830152614812816147d6565b9050919050565b600081905092915050565b7f697066733a2f2f00000000000000000000000000000000000000000000000000600082015250565b600061485a600783614819565b915061486582614824565b600782019050919050565b6000815461487d8161409a565b6148878186614819565b945060018216600081146148a257600181146148b7576148ea565b60ff19831686528115158202860193506148ea565b6148c0856140cb565b60005b838110156148e2578154818901526001820191506020810190506148c3565b838801955050505b50505092915050565b60006148fe8261484d565b915061490a8284614870565b915081905092915050565b6000614920826136ed565b915061492b836136ed565b925082820390508181111561494357614942613ff4565b5b92915050565b6000614954826136ed565b915061495f836136ed565b925082820190508082111561497757614976613ff4565b5b92915050565b7f4e487b7100000000000000000000000000000000000000000000000000000000600052603260045260246000fd5b600081519050919050565b600082825260208201905092915050565b60006149d3826149ac565b6149dd81856149b7565b93506149ed8185602086016137de565b6149f6816135b1565b840191505092915050565b6000608082019050614a166000830187613890565b614a236020830186613890565b614a306040830185613aff565b8181036060830152614a4281846149c8565b905095945050505050565b600081519050614a5c816134ba565b92915050565b600060208284031215614a7857614a77613484565b5b6000614a8684828501614a4d565b91505092915050565b7f4e487b7100000000000000000000000000000000000000000000000000000000600052603160045260246000fd5b6000604082019050614ad36000830185613890565b614ae06020830184613aff565b939250505056fea26469706673582212206330126ae05aee2710be57036596b28c794109baac8ca5b9da7ac79e8378d62364736f6c634300081c0033",
  "linkReferences": {},
  "deployedLinkReferences": {}
}